:020000040800F2
:10000000F81C002015020008B5930008D9820008EA
:1000100000000000000000000000000000000000E0
:10002000000000000000000000000000BD96000875
:100030000000000000000000A5940008C997000817
:100040002702000827020008F5950008270200088B
:10005000270200082702000827020008314B000889
:100060000000000027020008514900086949000803
:10007000270200082702000889A6000827020008B6
:1000800075980008270200082702000800000000F9
:10009000270200082702000827020008270200089C
:1000A00027020008270200082702000865A40008AC
:1000B00079A50008270200080000000000000000E9
:1000C00000F002F800F07AF80CA030C808382418C4
:1000D0002D18A246671EAB4654465D46AC4201D180
:1000E00000F06CF87E460F3E0FCCB6460126334238
:1000F00000D0FB1AA246AB4633431847B0E10000DC
:10010000D0E10000103A02D378C878C1FAD852077B
:1001100001D330C830C101D504680C6070470000BD
:100120000023002400250026103A01D378C1FBD813
:10013000520700D330C100D50B60704710B5672956
:1001400002D10DF04BFF10BD03681B0A01D38023C1
:100150001943642902D100F04FFA10BD782902D169
:1001600000F0B8FA10BDE42902D100F07BFA10BD0E
:10017000632902D102F028F810BD732902D102F0E0
:100180002BF810BD002010BD1FB50098019901F09B
:100190000CFD01F0E9FC0400002000210DF0F2FC50
:1001A000401C6060002000210DF002FDE06002F0C4
:1001B00059FB1FBD10B502F0C1FB10BD03F067FB7A
:1001C0001146FFF7E1FF0BF085FD03F0B1FF03B42B
:1001D000FFF7F0FF03BC04F02BF8000070B50546F4
:1001E0000C46164602E00FCC0FC5103E102EFAD278
:1001F000082E02D303CC03C5083E042E07D301CC3E
:1002000001C5361F03E021782970641C6D1C761E21
:10021000F9D270BD0748804707480047FEE7FEE770
:10022000FEE7FEE7FEE7FEE704480549054A064B00
:100230007047000071980008C1000008F8160020FF
:10024000F81C0020F8180020F818002010B501F064
:100250008BFC001D10BD00BF2DD9000070B50646F7
:1002600001F07EFC056830460B30C408E400B4425F
:1002700001D8002070BD68682A46002818D001689F
:10028000A14211D30B46214608318B4208D3436863
:1002900001194B6003681B1B0B605160046001E097
:1002A00041685160001D70BD024640680028E6D1DB
:1002B0002146284601F064FC0028DCD170BD70B5F1
:1002C0000446051F01F04CFC0068002C1AD044685D
:1002D00001E020466468002C01D0AC42F9D30168EB
:1002E0000A18AA4204D12A6805468918016000E06C
:1002F000456028684119A14205D16168696021689B
:100300004018286070BD6C6070BD70B50D46064623
:10031000041F01F025FC0268002D09D0002E0CD02E
:1003200028460B30C108C900A9420AD2002070BD7E
:100330003046FFF7C4FF002070BD2846FFF78EFF50
:1003400070BD23688B4208D35A1A082A25D3601837
:1003500004C02160FFF7B3FF1FE0506801E00246D0
:100360004068002801D0A042F9D31D19854216D15A
:1003700005685B198B4212D35D1A082D0AD34568B4
:1003800063185D60256800682818401A18602160AD
:10039000536002E0236040685060201D70BD081F5C
:1003A000FFF75CFF050007D02268211D121FFFF731
:1003B00015FF201DFFF783FF284670BDFEB50546DB
:1003C00010460C46184373D0AE468C460020AD1A3A
:1003D00001469C4167D36646002701243D46B61A74
:1003E0009D4102D313463A462124654676462F04A2
:1003F000360C3E432D0CB61A9D4104D3150C1B043C
:100400002B4312041034654676462F06360A3E43C7
:100410002D0AB61A9D4104D3150E1B022B4312025E
:100420000834654676462F0736093E432D09B61A2D
:100430009D4104D3150F1B012B431201241D65465A
:100440007646AF07B6083E43AD08B61A9D4104D3C1
:10045000950F9B002B439200A41C65467646EF0740
:1004600076083E436D08B61A9D411AD392185B4137
:10047000641C16E00018764665464941B71A9D414E
:100480000191009009D36046B11A98418E46844686
:10049000009801990025401C6941DD0752082A4354
:1004A0005B08641EE6D57246634603B0F0BDFFE705
:1004B00000200146C046C0462A462346F5E710B54F
:1004C0000446FFF7C3FE0068005DC00602D5204663
:1004D000203010BD204610BD0FB4014610B504AA4F
:1004E000039801F07DFE10BC08BC04B01847000062
:1004F0000FB41CB5084B06AA7B44694600900598CA
:1005000001F037FE04460020694601F045FE204612
:100510001CBC08BC04B018479D1C00000FB47CB57F
:100520000C0009AA009001D00019401E094B7B4421
:1005300069460190089801F01CFE002C054603D086
:100540006946002001F028FE28467CBC08BC04B0A7
:1005500018470000711C000070B5044685690068EA
:10056000C10601D5302600E02026C00707D070BDA7
:1005700062683046A1689047206A401C20626D1E68
:10058000F6D570BD70B5044685690078C00707D1FF
:1005900070BD6268A16820209047206A401C2062DC
:1005A0006D1EF6D570BD70B50C460546012A05D006
:1005B0002878800600D5EA69002302E0012305E0DF
:1005C0005B1C934202D2E05C0028F9D1A869E618CE
:1005D000C01AA861286AC01828622846FFF7BCFF25
:1005E00004E06A682078A968641C9047B442F8D394
:1005F0002846FFF7C7FF70BDF7B5002575291068BD
:10060000009914A611D0C046C046002802DA404224
:1006100011A608E0009909688A0701D50FA602E033
:10062000490704D50EA6012501E0C046C046009F3B
:100630000024243704E002F0B3F930313955641C4A
:100640000028F8D12B4632462146009801F029FBBC
:10065000FEBD0000000000002D0000002B00000087
:1006600020000000F7B5D21D0025D20815A6D20043
:10067000F52905CA11D0002A05DA0021404291412E
:1006800011A60A4608E0009909688B0701D50FA654
:1006900002E0490701D50EA601251146009F00245E
:1006A000243704E001F0B5FA30323A55641C0246B2
:1006B0000A43F7D12B4632462146009801F0F1FA61
:1006C000FEBD0000000000002D0000002B00000017
:1006D0002000000070B504460D4621461068C04653
:1006E000C0462188090502D50F4A7A4402E00E4A25
:1006F0007A440E3223460021243305E00607000920
:10070000360F965D5E54491C0028F7D120780023EF
:10071000000705D5702D03D0002901D00223113226
:10072000204601F0BEFA70BDE2D90000F3B50446E0
:10073000002081B020622046E1688847002872D0FE
:10074000252802D06268A168ABE0594F00267F449B
:100750002046E16888472028054608DB312D06D26F
:10076000781920380078002801D00643F0E7B00758
:1007700001D5042086430020E0610746A0612A2DB0
:100780000AD028460AF087F9002827D0B8000019B7
:10079000303D0090856119E00298BA00121902C834
:1007A000916102902046E1688847012F054617D1E4
:1007B000E06900281FDA202086431CE000980A2107
:1007C0008069484300994019303888612046E168C3
:1007D000884705460AF05FF90028EFD1012F0AD0BB
:1007E0002E2D08D12046E168884705462020064383
:1007F0007F1C022FC3DBA069002803DA4042A061FE
:1008000001200643F00701D0102086436C2D0BD049
:10081000682D09D04C2D3CD06A2D38D0742D38D09D
:100820007A2D36D016E040E0E1682F462046884712
:10083000B842054609D16C2F29D001208002E16819
:10084000064320468847054604E06C2F1DD0FF2054
:1008500001300643002D28D028464138192803D8F6
:100860000120C00206432035204626602946029A10
:100870001646FFF763FC002810D001280BD0F61DA8
:10088000F008C0000830029055E74020E1E78020E2
:10089000D5E70020D3E7361D02964CE7626828466C
:1008A000A1689047206A401C44E7206AFEBD000012
:1008B000A6D900000FB400B58DB010A909900B9017
:1008C0000020C04300910A9000200C900748784413
:1008D0000690074878446A4607900F9909A801F0E6
:1008E00001FF0DB008BC04B018470000371E00001F
:1008F000511E000070B5064601F03AF9046805463D
:1009000030460A22002101F075FF2C6070BD401EA8
:10091000CAB24178401C8A4202D00029F9D1002095
:10092000704730B505460B462A461C781078521C95
:100930005B1C002801D0A042F7D0002C03D0002877
:1009400002D06D1CEFE7284630BD0000034670B5AD
:1009500002460B439B070FD10E4CE60100E008C294
:1009600008C91D1B9D433542F9D0D9B21170521CE4
:1009700000290DD01B0AF8E70B78491C1370521C94
:10098000002B05D00B78491C1370521C002BF3D19F
:1009900070BD0000010101010022CBB20178401CB2
:1009A000994200D1421E0029F8D11046704700003C
:1009B00030B5441C03E00178401C00290DD08107AC
:1009C000F9D10B4BDD0104C8D11A91432940FAD06B
:1009D000001B0A0603D0C01E30BD001B30BD0A0438
:1009E00001D0801E30BD0902FCD0401E30BD000089
:1009F000010101010346F0B50B439B072DD1244DA6
:100A0000EF01042A29D308C810C95E1B9E43121F98
:100A10003E4017D0D8B2E1B2401A3106014310D19E
:100A200098B2A1B2401A310401430AD1180221023E
:100A3000000A090A401A3102014302D1180E210EA0
:100A4000401AF0BDA342DCD018BA21BA884201D9BD
:100A50000120F0BD0020C043F0BD002A01D10020DC
:100A6000F0BD03780C78401C491C002B0DD0A3422C
:100A70000BD1521E09D003780C78401C491C002B66
:100A800003D0A34201D1521EEBD1181BF0BD0000D0
:100A900001010101F8B5042A2CD3830712D00B7889
:100AA000491C0370401C521E83070BD00B78491C55
:100AB0000370401C521E830704D00B78491C03703E
:100AC000401C521E8B079B0F05D0C91ADF00202344
:100AD000DE1B08C90AE0FFF781FBF8BD1D4608C907
:100AE000FD401C46B4402C4310C0121F042AF5D20E
:100AF000F308C91A521EF0D40B78491C0370401C2D
:100B0000521EEAD40B78491C0370401C012AE4D41D
:100B100009780170F8BD01E004C0091F0429FBD267
:100B20008B0701D50280801CC90700D00270704776
:100B300000290BD0C30702D00270401C491E0229B5
:100B400004D3830702D50280801C891EE3E70022BC
:100B5000EEE70022DFE70000F8B507460B4639460E
:100B60001943890713D1164CE601042A0FD302CB8F
:100B70000D1B8D43354202D102C0121FF5E7CBB2E7
:100B80000370401C521E002B13D0090AF7E7002AFD
:100B900014D01978521E5B1C0170401C002908D02B
:100BA000002A0BD01978521E5B1C0170401C0029D2
:100BB000EDD1002A02D01146FFF7C9FF3846F8BD33
:100BC00001010101024670B50A4392072AD11E4D68
:100BD000EE0104C808C9541B9443344017D0D0B266
:100BE000D9B2401A2106014310D190B299B2401AED
:100BF000210401430AD110021902000A090A401A0D
:100C00002102014302D1100E190E401A70BD9A4202
:100C1000DFD010BA19BA884201D9012070BD002076
:100C2000C04370BD02780B78401C491C002A09D0D3
:100C30009A4207D102780B78401C491C002A01D047
:100C40009A42EFD0D01A70BD0101010100220309C0
:100C50008B422CD3030A8B4211D300239C464EE0D7
:100C600003460B433CD4002243088B4231D3030993
:100C70008B421CD3030A8B4201D394463FE0C30945
:100C80008B4201D3CB01C01A524183098B4201D35D
:100C90008B01C01A524143098B4201D34B01C01A48
:100CA000524103098B4201D30B01C01A5241C308C0
:100CB0008B4201D3CB00C01A524183088B4201D32F
:100CC0008B00C01A524143088B4201D34B00C01A1B
:100CD0005241411A00D201465241104670475DE030
:100CE000CA0F00D04942031000D3404253400022B3
:100CF0009C4603098B422DD3030A8B4212D3FC225C
:100D0000890112BA030A8B420CD3890192118B42DA
:100D100008D3890192118B4204D389013AD09211F0
:100D200000E08909C3098B4201D3CB01C01A5241AB
:100D300083098B4201D38B01C01A524143098B4274
:100D400001D34B01C01A524103098B4201D30B015D
:100D5000C01A5241C3088B4201D3CB00C01A524182
:100D600083088B4201D38B00C01A5241D9D2430869
:100D70008B4201D34B00C01A5241411A00D20146A6
:100D8000634652415B10104601D34042002B00D510
:100D90004942704763465B1000D3404201B50020D2
:100DA000C046C04602BD7047704770470246C80F34
:100DB000C00781434B0030B54B405B009B0D20D0FA
:100DC0001923DB06C91801231B05994220DB0324E4
:100DD000A40704251346AB400BD3002B04D1EB062C
:100DE00013409B00E34204D401246407002312193A
:100DF0005941FF231B0599420BD2C9000143500FF3
:100E000009E0CB0204D501430803024305D005489D
:100E100030BDFF21C905084330BD0846072109053B
:100E2000884330BD0000C07FF0B50C46871A9C4156
:100E30000D46861A9D4103D2C01BA141D2196341C0
:100E40000D0D1F0DC94EEC1BAE435CD07F057F0D11
:100E50000026002F51D02D05AC46A943DD02012309
:100E6000ED0A1B051D4320231B1B24D41746E74016
:100E7000381871412F46E740CC199D40281831465B
:100E800061410C0D27D161449A4013D50023401CC9
:100E9000594152000ED14008400001224B0052053A
:100EA000D34207D305204007C14201D5B04900E035
:100EB000B0493046F0BD6B00002A00D001229A18DC
:100EC0001F23203C1B1B01D5002302E0E54028180E
:100ED00071410C0DD7D0012424050919C407CD0791
:100EE00040084908E40F28436144002CD5D0002471
:100EF000401C61419A40D0D1CDE76A05520DD9D14D
:100F0000C90FC907D5E79C4D4E00002801D0012428
:100F100000E0002434195F00002A01D0012600E01F
:100F20000026BE19954FAC420CD8AE420AD8B44246
:100F300006D001256D05EC42BCD010461946F0BD27
:100F40009942FCD000203946F0BDF0B51FB40C46E4
:100F50000F46811A9F412546861A9D4106D20125DA
:100F6000ED076F40401ABC4152187B41210D1E0D08
:100F70008D1BAC467D4D8D437ED075056D0D7CD0AF
:100F80000D05AE46AC431B031B0B794D52429D41F0
:100F9000202366469B1B14D31746F74038180026BB
:100FA0000090744160462F460741E41900989D4027
:100FB0002818664116D4714671189A4025D5012328
:100FC00020E093182A466A415200002B00D0521CA0
:100FD0001E23203E9B1B002B61DD3541EE17281898
:100FE0006641E8D5001876415B1C9A4000D3401C4E
:100FF0004B05F3181524E34010D3002B52D0714653
:101000007118D30FC01802D3491C05B0F0BD0123DD
:10101000DB079A42F9D140084000F6E70122520569
:10102000B21801D1002853D00123CC0ADB02994326
:10103000891E002A08D1020C03D0020C00041039CA
:1010400002E00246002020390023550B05D1120290
:101050000823550B01D152010D23550C01D112016A
:101060001B1DD50C01D192009B1C150D01D1520006
:101070005B1C2025EE1A01E02CE022E00546F5403D
:1010800015439840CA1AE10769181305C918002AC0
:10109000BBDA032040070818C10FC9070FE07146EB
:1010A0006118B2E7F10740080843711071444A0023
:1010B0000CD001235B059A42A7D2C90FC9070020B3
:1010C000A3E74905490D26D1002001E00028F4D10D
:1010D00000219AE7284D6600002801D0012100E098
:1010E000002171185F00002A01D0012600E00026CF
:1010F000BE19224FA94210D8AE420ED8B14208D034
:1011000001256D05E94206D01946A8024140104666
:101110007BE79C4201D0214677E70020394674E7FF
:1011200010B50C465C4005D50124E4076340FFF789
:101130000CFF10BDFFF778FE10BD30B40C465C40CC
:1011400004D50124E407634030BC6DE630BCFCE606
:1011500070B50124E40761400D465D4002D4FFF7FD
:1011600063FE70BD6340FFF7F0FE70BDFF07000037
:101170000000F0FF0000F07F0000E0FF0000F87FBB
:10118000F0B5F94D0C091E092C402E402F468BB0AE
:10119000A7437DD0B543FCD0002E7AD0002CFCD0E4
:1011A0000D465D40ED0F2543AC1BFF25AD046419D2
:1011B0000894C502440DC9022143500DDC020443CA
:1011C0000120C00701430443D2020191200C110CFD
:1011D00000958C46010423468B430A91614609041D
:1011E000E24D8A430991010A7D4449198039097801
:1011F00005464D4301266D18F605751B6943C90C5C
:10120000640B891C4C436418B5012C1B250C2E045F
:10121000B4434C434D43210C691889090591009D45
:10122000E90701D00121C90704912C4601996708FB
:10123000CD072F434C08059DE10B4D432D0C29464E
:101240006646754302950D4645432E46029D7D1B1D
:10125000B44100950D465D4301942C0C2F040D46BE
:101260005543AE462D0C3D43029503947546049CB0
:101270002D04641B049406D2029C039D641C00266A
:1012800075410395029401AC70CC009F7D1B01E079
:101290003EE162E1B441090400950791019405998A
:1012A000A4086143090C0C464443650BE7040C4653
:1012B00066467443A646640B3C4303950294744609
:1012C000049DE4042C1B049406D2029C039D641C20
:1012D000002675410395029401AC70CC009F7D1BE4
:1012E000B44101940C465C430095650FE7000C4641
:1012F0005443A646640F3C43039502947446049DF0
:10130000E4002C1B049406D2029C039D641C00265E
:1013100075410395029401AC70CC009F7D1BB441D4
:10132000AE09AF06049DC900AD092F43049DA40674
:10133000AD060495079D344369180791059DE10B9F
:101340004D432D0C29466646754302950D4645438F
:101350002E46029D7D1BB44100950D465D430194D0
:101360002C0C2F040D465543AE462D0C3D430295E3
:1013700003947546049C2D04641B049406D2029CBD
:10138000039D641C002675410395029401AC70CC4A
:10139000009F7D1BB44101948C050694079C890A2B
:1013A000611800950791019C0599A4086143090CF7
:1013B0000D464543680BEF040D46644665436C0BD0
:1013C0003C43049FED047D1BAC4602D20025641C07
:1013D0006841009E019D371B854108465843019591
:1013E0000C46460FC5005443600F28436546E40091
:1013F0002C1B02D20025401C6E41019D3F1AB541B5
:101400002846BD09800628438446A009BF064E022F
:101410000699A40676180743079D002068410A999B
:10142000079019430020099B00906046FF19134361
:101430004041E20F64003A43A4460446D71A8C4167
:10144000A04203D90120009020463A46C70F9418C5
:1014500040416246D20F2243644664000494009CDB
:10146000BE466400D71AA446044602978C417746CC
:10147000002F01D1A04204D96046401C8446029A44
:101480002046C40FA64694184041049A0546D20F40
:10149000224364466400D31A8D417146002901D16C
:1014A000A84202D928461A46641C1043012200288B
:1014B00000D0164361020020079B891904465C4155
:1014C0000223002C02DB491813466441089DCE0A12
:1014D0002D145D194B056705E10A2C050D190899B6
:1014E0003E43C9076940002B08D0934006D3002231
:1014F000761C5141002B01D1760876001C4A002D44
:1015000043DB154241D0AA433FD030460BB0F0BD7B
:1015100006180D464D41174C7642AC411AD395182A
:101520001C465C41134A6D42A24113D3012252056D
:101530004C00D4420AD15C00D4420BD04B4002D5BF
:1015400092021143E2E749004908DFE75940C90F19
:10155000C90718E000200849D8E7054801420DD125
:101560000342F7D0F2E700000000FF071DCF0000A4
:101570000000F07F0000E0FF0000F87F11485940B4
:101580000143C01241400020C0E70123089A9B0696
:101590009A4205DC032252078918C90FC907B5E72B
:1015A000052252078918074A1143D2125140ADE76C
:1015B00070B515461C4602460B4628462146FFF7E5
:1015C000DFFD70BDFFFFFF7F30B50346CA02400D4F
:1015D0001043164D164C0A1502D02043002A06DB94
:1015E000AA1A002A12DDD040FF2A0BDC30BD5205BA
:1015F000520D01D140004008AA1A07D4D040404201
:10160000FF2A01DD002030BD0028FCDD4A00002B50
:1016100001D0012000E00020101801225205D04224
:10162000F0D8C817C043604030BD00001E04000061
:10163000000000800346CA02400D10B510430A1591
:1016400004D00124E4072043002A05DB0A4CA21A37
:1016500004D4D040FF2A00DD002010BD4A00002B3A
:1016600001D0012000E00020101801225205D042D4
:10167000F2D8C817C04310BD1E0400001F22030C7F
:1016800002D10F22000402D0030E03D004E0002098
:10169000014670470002083A030F01D10001121FF2
:1016A000830F01D18000921E002801DB4000521EF2
:1016B000120551184205C012411810467047C10F5B
:1016C000C90700D04042012292071143D6E7012109
:1016D0008907D3E7F0B58B4C0F09254689B0BD4388
:1016E0007BD01D092646AE43FAD00E465E40274009
:1016F000F60F3E43254071D024012142FBD0FF2448
:10170000AD19A4042D1B039501252D05DB02DB0A71
:10171000C9022B43C90A29431E010901040F130FF3
:10172000050121431701880B820391432D098C4643
:10173000A90B1E438A039543B30B9A0396433F09B3
:10174000BA0B9403A74302962E467E430497B646EF
:101750004E19D7190C460196544305977E43371B03
:101760007646BF1B3601B646BE0B36190096764646
:10177000BC043719009C01D3641C00946400002F42
:1017800001D001263443029E049F754366467E4382
:101790000496760034196E0034190094029C019E60
:1017A0001C196643751BAE46069465464519059C93
:1017B00005956C43594375460891691A0191049E39
:1017C00001465143A41B0491611A009C0791E10654
:1017D00005D061090122114302E072E06EE0610967
:1017E000089D00272C0A2D066918049D7C412A0AB1
:1017F0002D066918019D6241AC0DAD026D18544172
:10180000079A910D920255196141029A6446584314
:101810005443069B059A5A43121A131B9A0E9B01B6
:101820005B187A41010B0005C3185141220A2006BA
:1018300044195A419A4200D2491C01204002814277
:1018400003D315230226F64302E014230326F643AE
:101850002020C51AA9401746AF40DA400A43204667
:101860000399D8400914731819055118039A38437D
:10187000D2075140AC4009D00122944006D3002247
:10188000401C5141002C01D1400840001E4A9342A7
:1018900012D3012203989206904207DB05204007ED
:1018A00009181A480143C012414004E003204007D0
:1018B0000818C10FC907002009B0F0BD0020F107CA
:1018C000FAE705180C464C4111486D42A04115D36A
:1018D00094181A465A410E48644290410ED3012092
:1018E0004A004005824209D35A00824206D3594039
:1018F000C90F084AC90700201143DDE70020064947
:10190000DAE700000000FF07FE070000FFFFFF7F8F
:101910000000E0FF0000F07F0000F87F0121C90512
:101920000123411842001B06D3185B0E0AD0C110D8
:101930000722D206891840075242D14201D55200EF
:1019400089187047090208D50146002A03D0C10F43
:10195000C9070020704710467047420202D000209D
:1019600002497047072109050143F4E70000F87FA9
:10197000F0B5FF252D04C609C209FF2704462E40F5
:101980000137CB093E4348402A402B400746002AF6
:101990006BD0002B69D0AA4267D0AB4265D000283B
:1019A00000DA32460125ED0529432C4309022002C5
:1019B000090AD21A4B0C7F24E31A434C000A7C44D8
:1019C000E35C7D242404121914145B00A2188842DD
:1019D00001D3521C00E0400049420C465C432411F4
:1019E0005C43DB016415E318040A5C43C502200D67
:1019F0000C4644436419250A5D432303EC0C0D4651
:101A0000654300030019EB184C42A34201D35B1855
:101A1000401CD4052018002B07D05B00C91804D344
:101A2000401C002901D1400840003F2189048A421E
:101A300009D3002A08DC1106090F04D00321490745
:101A40004018C00FC007F0BD0122410012068918DE
:101A50007F2252069142F6D205214907C84201D59C
:101A60009010F0BDFF20C005F0BD002F00DA324617
:101A70001648AA4207D2AB4205D21902090E17D066
:101A8000F80FC007F0BDFF2563002D06AB42F9D863
:101A90004900A942F6D8AB4201D1A942F2D0A942ED
:101AA00001D1002101E061004908D0050843F0BDE3
:101AB0001102090EFBD0FF200243D005F0BD0A46FB
:101AC0000146104654E70000C7C700000000C07F71
:101AD0000102C21504D00123DB071943002A0ADBE7
:101AE0009E239A1A02D40846D0407047FF22410034
:101AF0001206914201D900207047C017C0437047B9
:101B00001F22030C02D10F2200041CD0030E01D1AE
:101B10000002083A030F01D10001121F830F01D107
:101B20008000921E002801DB4000521ED205511891
:101B3000021251181922904004D3491C002801D1E7
:101B40004908490008467047C10FC90700D0404204
:101B5000012292071143D3E701218907D0E7000052
:101B6000004870479C16002000487047B4160020BB
:101B700000487047941600207047704770477047C0
:101B800038B504460A4600206946C046C0460028CB
:101B900005D002462046009901F032F8012038BDF8
:101BA00010B5012001F042FE10BDF8B5C046C04698
:101BB000054600200C461020C0460646A819A04243
:101BC0000DD9324669460020C046C046070001D103
:101BD00001F02CFE0098A04200D00546C419FFF782
:101BE000BFFFF61D07460560F008C00046192846ED
:101BF00000F008F8B44204D031463868A21B00F067
:101C0000FFFFF8BD00210160416080607047102037
:101C100070470B4670B5024689078008084319468D
:101C20009D08141AA94125090807054308092C191C
:101C30004841250A01060D43010A2C194141200C97
:101C40000D0428430D0C00194D41002140194D4150
:101C5000C00869070843E908840F8D002543840004
:101C600024184D4124196D41121BAB4107E0092591
:101C7000ED432C11521963410024401C61411C4664
:101C80000A250026551BB441F1D270BD10B5FFF7EF
:101C90006FFF006810BD10B50446FFF769FF0460D0
:101CA00010BDFFB504460D4681B024300090216878
:101CB000880604D51022E0699143216000E00120EC
:101CC000A84201DD471B00E000270498A1697A19AA
:101CD0001018081AA0612078C00602D42046FEF72A
:101CE0003BFC002608E003986268A168805D90478D
:101CF000206A401C761C206204988642F3DB207820
:101D0000C0060AD52046FEF727FC06E06268A168F7
:101D100030209047206A401C206238467F1E0028F1
:101D2000F4DC07E000986268A168405D9047206A93
:101D3000401C206228466D1E0028F3DC2046FEF77A
:101D400021FC2078000602D5022005B0F0BD01205C
:101D5000FBE700007047FFB50C461E468FB003CA74
:101D6000089009914F007D0D00D16D1E002108469D
:101D70000020C0460321099A89050840002A03DA99
:101D80008200801840080840800D01280A9002DD7A
:101D90000020C0430A90089807430DD0EF48F0494F
:101DA000281848430714189800281DD07542291E8A
:101DB0001DDD0A9842421BE01898012802D000203D
:101DC000302104E00020F24305E02154401CB042E1
:101DD000FBDB30460022189B002121540F998B60B9
:101DE0000A60486013B0F0BDBD1B6D1CDFE70A9AA6
:101DF000002900DA69420BA801F096F90BAB07CB7A
:101E000003AB07C30899099801F0F2F96B4607C3C1
:101E10000146D4480918002D00910ADDD1490398E4
:101E20000A9A4942401803A90390684601F005FC4C
:101E300007E003990A9A081803A90390684601F07D
:101E4000D2FB6B4607C30004000C03D00020C04344
:101E5000410800E01046189A002A03D000220092A0
:101E600015461EE0751E05D4FFF7D3FE30326255CD
:101E70006D1EF9D501220843079602D000227F1C6F
:101E800004E02078302801D100227F1E002A069726
:101E900089D01EE0112D07DAFFF7BBFE3032625504
:101EA0006D1C02460A43F5D1084303D00098002870
:101EB00019D00EE00021681E05E0235C625C6354CB
:101EC0002254401E491C8142F7DBA81B401E079587
:101ED0000690079A18990020A0540F98079B069A1D
:101EE00081600CC07EE71126002018905BE7D21DB0
:101EF000F0B50D460446D10893B0C90003C90C9053
:101F00000D9108F0F7FC02460D98C00F01D02D206E
:101F100007E02068810701D52B2002E04007C00FB1
:101F20004001032A0F9001D0072A05DB034629460A
:101F3000204600F0A1FE0EE12078800601D5E76979
:101F400000E006272846652D04D0662814D0672DAA
:101F500069D12DE00020112F009001DB112300E05A
:101F60007B1C0CAA03A910A8FFF7F5FE1199002607
:101F700010987D1C0E9142E001203B460CAAC00740
:101F80000B900120009003A910A8FFF7E4FE119D1B
:101F900012981099002600280E9501D1781C0D1872
:101FA000781B02D446427D1C761EE81B00903AE066
:101FB000012F00DA01270020112F009001DD1123ED
:101FC00000E03B460CAA03A910A8FFF7C4FE119934
:101FD0003D46109800260E91217809070BD40E99E2
:101FE000A94200DA0D4603A9012D04DD4A19203A61
:101FF000D27F302A06D0B84201DA011D04DA01216D
:1020000000910FE06D1EEFE7002802DC86192D1A03
:1020100003E0411CA94200DD0D46801B401C0090DE
:102020000120C0070B902078000705D40098A84233
:1020300002DB0020C043009069460020C8720B9864
:10204000012102AF0337C907884225D00220109032
:102050002B2011900B9800280BDA40420B902D207A
:10206000119006E00B9800F09BFC30317F1E0B9026
:1020700039701099481E00291090F3DC0B98002845
:10208000F0D111987F1E38702088000501D54520B9
:1020900000E065207F1E387001A8C01BC01D0B909A
:1020A0000F98002800D0012041190098C017091886
:1020B0000B980818A169081A401EA0612078C00674
:1020C00002D42046FEF748FA0F98002805D062682F
:1020D000A1689047206A401C20622078C00625D560
:1020E0002046FEF739FA21E0002E07DB0E98B042B9
:1020F00004DD03A86268805DA16802E06268A168EF
:1021000030209047206A761C401C20620098401EB8
:10211000002800900AD1FFF727FDC06862680168B7
:10212000405CA1689047206A401C206228466D1ED2
:102130000028D9DC07E062683878A1687F1C9047E6
:10214000206A401C20620B99481E00290B90F2DC8B
:102150002046FEF717FA032044E6000001FCFFFFCB
:10216000104D0000E1DFFFFF01694A1C02610878A1
:10217000704700B58FB00291002105910549019388
:1021800079440391114604906846FEF7CFFA0FB0E8
:1021900000BD0000E5FFFFFF0A681070521C0A60D6
:1021A00070470CC908399A4202D2531C0B60107058
:1021B000704710B54369002B02D0C046C04601E00D
:1021C000FEF7F1F9012010BD1278014624310A70A2
:1021D00000224A700122ECE711680022D243E8E7AE
:1021E000084B70B50D467B44FFF7C3FF04462846F5
:1021F00001F052FA002802D00020C04370BD2046F2
:1022000070BD0000F3920000FFB58BB00878FF2886
:1022100006D0491C2D2805D000230020009009E09D
:1022200000200EE00123F8E7009A0A246243801898
:10223000491C00900878FF28F6D1002B02D00098A6
:1022400040420090002503952C460D9800782D28DB
:1022500001D02B2815D10D99491C2D280D9102D0A4
:10226000002003900DE00120FBE7401C21460027E1
:102270000A223B460D90284600F0DCFC35183C460F
:102280004C410D980678FF2EEFD100210846002022
:10229000C0460399002902D081004018400800027E
:1022A000870F012F01DD0027FF430E990098461884
:1022B000284620430BD0FF20F530C64210DA0398A1
:1022C000C1070B9841600B990020086018E0039843
:1022D000C1070B9841600B99002008600FB0F0BD5A
:1022E000FF20F530864210DDF648784406C80B988A
:1022F00006C00B9803994068C90708430B994860CA
:10230000FFF736FC02210160E8E7311E01DA7A426C
:1023100000E03A46002900DA714207A800F004FF05
:1023200007AB07CB04AB07C3E7480090002001468A
:10233000214304D12C460546E34920390091210C64
:102340000904014306D1290C24040C4300992D04EF
:1023500010390091210E0906014306D1290E2402ED
:102360000C4300992D0208390091210F0907014300
:1023700006D1290F24010C4300992D01091F00915A
:10238000A10F8907014306D1A90FA4000C430099AE
:10239000AD00891E0091E10FC907084304D10098E0
:1023A0006D196441401E00903A466846002E04A90B
:1023B0000295019402DD01F022F901E001F048F9F3
:1023C000044603980D46002802D00120C00744406F
:1023D000BE4E60004008284303D06000400DB0426C
:1023E00014D1FFF7C5FB022101606000400DB0422F
:1023F0000CD1B748784406C80B9806C00B98E10F7B
:10240000C907406808430B99486067E70B98446028
:102410000B98056062E7FFB51F4695B000200025C8
:102420000C909E685C68ED431390FFF79DFBC068BD
:102430000168405C1490B96916986D1C88470A9031
:10244000396A88470028F6D10A98401C0AD00D2026
:10245000C0018443002E12DD0A982B2809D02D28B4
:102460000DD103E00020C04319B0F0BD012080026F
:102470000443B96916986D1C8847761E0A9060055A
:1024800004A901D52D2000E02B206A46491C1074B8
:1024900010A8002E0D910B903BDD0A98692805D0FD
:1024A000492803D06E2801D04E281DD13B46039009
:1024B00002200296179A1699C043009501940BF0DA
:1024C000A5FDC11CD0D10FE0B96916986D1C8847D5
:1024D0000A900120761E4002044317980560139865
:1024E000401C002E139014DD0A983028ECD0782878
:1024F00001D058280DD1139801280AD13B460296E5
:10250000179A1699001F009501940BF077FDC11CD6
:10251000AAD114990A98884246D18020044308E041
:102520000C981799401E0C90012040020443681C2F
:102530000860B9696D1C1698761E884730280A9085
:10254000EED031E01499884205D1200603D48020D2
:102550000443761E1EE00A9808F09DFA002826D053
:10256000012008A9400204430D980331761E8842D9
:102570000BD20A980D99303808700D98401C0D90B8
:10258000200607D50C98401E03E0200602D40C98C4
:10259000401C0C90A00502D51799681C0860B96909
:1025A00016986D1C88470A90002ECBDC59E0002E4F
:1025B00057DD0A98652801D0452852D1A00550D58D
:1025C0000320B969000284436D1C1698761E884763
:1025D000002E0A900CDD2B2804D02D2808D1FF20D6
:1025E00001300443B96916986D1C8847761E0A901D
:1025F000E00501D52D2100E02B210B9801700B98EF
:10260000401C0B90009025E0012012A940020443D9
:102610000B980131761E88420ED20A980B993038F9
:102620000006000E087003D100990B9888420AD961
:102630000B98401C0B9006E0E00501D5254801E011
:10264000244840420C90B96916986D1C88470A903E
:1026500017980560002E04DD0A9808F01CFA00287F
:10266000D2D1F969169888470D99FF2004AA0870FD
:102670000B99087000200E900F900C9B10A90EA8CB
:10268000FFF7C2FDA00502D40120C043ECE62420E0
:10269000044209D0E00713D138680F9A0E99031D40
:1026A0003B60006806C00BE00EA9684608F097F989
:1026B000E00705D13868009A011D396000680260A2
:1026C0002846D1E6DEBF00003E400000FF070000C4
:1026D000D4BE0000F1D8FFFF0268511813780160E2
:1026E0001846704710B5D1600549794451610549D4
:1026F0007944116200211161114600F001FB10BD07
:10270000EBFFFFFF710500004268002A08D0016856
:102710000B78491C002B03D0521E06C01846704788
:102720000121C160881E70474268002A0BD0C3682F
:102730000168002B07D183688B4204D0491E521CCC
:1027400006C0002070470020C04370470FB400232C
:1027500000B589B00CA900910B99CB60214B7B444B
:10276000214A7A4407920422069301921F4A029258
:102770001F4A7A446B460892024600200BF036FC52
:1027800009B008BC04B0184770B5064615460C469B
:10279000324686B00020C04301900020049004A877
:1027A000009102916946FFF7D1FF03460498211872
:1027B000002D05D0002801D00A4600E022462A60FC
:1027C00000280DD0002B02DD0098884208D0324648
:1027D000081B6946019004A800940294FFF7B6FF15
:1027E00006B070BDA7FFFFFFC3FFFFFFFFFFFF7F26
:1027F000EF040000F7B50F460026009C2578641C06
:10280000002D05D0FDF722FD0068405DC007F5D121
:102810002B2D02D02D2D18D0641E3946029A204649
:1028200000F02EFC002F04D03968A14201D100999C
:1028300039607105022400290BDA4042002803DDCB
:10284000FFF796F90460A007FEBD01208002064351
:10285000E3E70028F8DAFFF78BF904600048FEBDD3
:10286000FFFFFF7F10B543485421FEF772F942483D
:102870005421FEF76EF941485421FEF76AF94048A9
:102880003C493D4B404A01603E4803603B48106074
:102890005A1C0A65411C1965012101653C48354AED
:1028A0003AA1784400F022FF002804D13848784447
:1028B0000C3800F0B5FF38482F4A36A1784400F0B4
:1028C00015FF002804D1344878440C3800F0A8FFE4
:1028D00032482A4A2FA1784400F008FF002804D18A
:1028E0002E4878440C3800F09BFF40232148DC0040
:1028F0000021224600F0D4FE002804D02448784469
:102900005C3800F08DFF1C4822464023002100F077
:10291000C7FE002804D0204878445C3800F080FFCF
:10292000164822461023002100F0BAFE002804D0E9
:102930001A4878445C3800F073FF10BD0F4870B53A
:10294000006D44080B48640000F044FF0A4800F0A2
:1029500041FF0A4800F03EFF09E0206D450820468F
:102960006D0000F037FF2046FDF7A9FC2C46002C37
:10297000F3D170BD98150020EC1500204016002002
:1029800084000020880000208C00002072000000DD
:1029900023B90000770000000DB90000F7B800006F
:1029A00001468008081A02091018020A1018020CC1
:1029B0001018C008820012185200891A01E0401C49
:1029C0000A390A29FBD27047F8B5224C4E00069D01
:1029D000A6420AD8A64201D1002806D15E00A6422E
:1029E00003D8A6420AD1002A08D00D242404254287
:1029F0002CD02946002000F01FFFF8BD0C461C43D8
:102A00000CD4994202D0EFF30080F8BD904202D07E
:102A1000EFF30080F8BDEFF30080F8BD0924240730
:102A2000E5008B4206D0EFF30080A043591A06D28E
:102A3000284304E0101A05D3EFF30080A04380F38D
:102A40000088F8BDEFF30080A043F1E7009500F0A7
:102A50000BFFF8BD0000E0FF10B5FF231B0644008C
:102A60009C421DD84C009C421AD80346124A0B4384
:102A700007D4401A02D3EFF3008010BDEFF30080BB
:102A800010BD081A06D2EFF3008001219043C90758
:102A9000084302E0EFF30080904380F3008810BD0C
:102AA0000D231B041A4204D01146002000F0C4FE7E
:102AB00010BD00F0E3FE10BD0000009010B5FF2235
:102AC000C30D134009D05A4007D0914205DA5C4249
:102AD000A14202DDC905081810BDC40FE407002B90
:102AE00006D0002A06D0002902DBFF20C0050443DF
:102AF000204610BD4102FCD0004810BD0000C07F40
:102B000030B5C30D1906214A090E31D0FF292FD047
:102B100000283ADB01025002014301207D33C3400B
:102B200000D24908012080071724091A2406490801
:102B300082102343FF252D064C00211A04D4891A44
:102B400002D45400201800E0214652085B19F3D546
:102B50001A220446944007D382068A4203D1802178
:102B60008030884300E08030C009D905081830BDA6
:102B7000FF2904D04100FAD0C00FC00730BD410288
:102B800001D0104630BD0028FCDAFAE70000C07F13
:102B90000EB501910090FDF70BFF029069460120F0
:102BA000ABBE0EBD08B5694600900220ABBE08BDA5
:102BB0001FB56B4607C369460520ABBE04B010BD08
:102BC0001FB56C460FC469460620ABBEF6E708B5D4
:102BD000694600900920ABBE08BD1CB500900A20D4
:102BE00001916946ABBE1CBD704708B569460090AF
:102BF0000C20ABBE08BD00000048704794160020B2
:102C000010B50346406801E003464068002801D043
:102C10008842F9D31868C3188B4206D0CB1CD80859
:102C2000C000001D411A521A0146081D0A60FDF736
:102C300046FB10BD4343514330B55C18010C130CE7
:102C40000D4692B25D4380B251432C19054655435F
:102C50000A0C09044D1962415843010C0004401943
:102C6000514130BD10B50446FDF7F0FA0068005D33
:102C7000C007C00F10BD0000F8B51F460446012371
:102C80000068DB02032601461840072A05DB0028FE
:102C900001D017A506E017A504E0002801D016A56D
:102CA00000E016A5102081432160A069C01E002FFE
:102CB000A06101D0401EA0612046FDF74DFC002F11
:102CC00009D038466268A1689047206A401C20629B
:102CD000C01C206206E0206AFAE762682878A168D2
:102CE0006D1C9047761EF8D22046FDF74BFCF8BDD0
:102CF0004E414E006E616E00494E4600696E6600A0
:102D0000F3B50C468FB000200C90012000260E90E9
:102D100008460C3003906269039801219047051E14
:102D20002ED0252D2DD0216A8847002818D0626921
:102D3000039801219047216A88470028F7D16269EA
:102D4000411E0398904700E0761CA1690F988847C0
:102D5000216A88470028F7D1E1690F988847DAE7A8
:102D6000A1690F988847A842074601D1761CD2E78F
:102D7000E1690F9888477F1C02D10C98002877D012
:102D80006BE16269039800273D46394690472A283F
:102D90000CD16269039801219047012506E00A21C0
:102DA0004F433F18303FEBD410200543626903982E
:102DB00001219047014630390A2903D2AC498F429C
:102DC000DEDCECE7E90600D4AA4F6C280AD04C28D8
:102DD00010D0682824D06A282ED074280CD07A28E5
:102DE0000AD00DE062690398012190476C2823D036
:102DF00004211CE0202005436269039801219047CB
:102E0000A760652865604FD026DC582839D01ADCC9
:102E1000452849D012DC252834D04128B0D143E0E0
:102E20006269039801219047682802D008210D4368
:102E3000E6E70120C002DEE70220DCE7462833D0C7
:102E400047289DD130E05B2870D061282CD06328C2
:102E50006CD0642894D161E06F284FD009DC6628DB
:102E600022D0672820D0692826D06E2817D12EE0DE
:102E7000EFE070284DD073286FD075284ED0782899
:102E80000DD154E0A1690F9888472528054600D147
:102E90006CE7E1690F9888476D1C00D16DE7DCE0B5
:102EA0000A224CE00A2252E0012023466A460F998A
:102EB000C0430BF09BF8C5E0402128462346084359
:102EC0006060A80701D5002239E000223FE0E80752
:102ED00000D020E72068011D21600068290501D588
:102EE000067018E7290701D5068014E7A90703D55E
:102EF000F117066041600EE706600CE740212846A6
:102F0000234608436060A80701D5082217E008227D
:102F10001DE0594928460840606016E040212846D7
:102F2000234608436060A807BCD5B9E715E04021F7
:102F3000284608436060A80707D5234610220120D1
:102F40000F99C043C046C0467CE0102223460120B2
:102F50000F99C043C046C04674E0002163280B4669
:102F60000191009102910D9102D05B2807D03BE0C6
:102F7000E80601D40120A0600120009034E0E06860
:102F800001210D906269039890475E2807D10120C6
:102F90000190E06801210D906269039890472169D2
:102FA000002906D10B4604AA8F00491C0829D351D9
:102FB000FADB002851D02169002926D00298401C54
:102FC000029062690398012190475D28F1D1019830
:102FD000002808D0002004AB8100401C5A58D2437E
:102FE00008285A50F8DB04AB2069002820791CD04F
:102FF0004007029A00980D9B0092224602901F48BB
:103000000F991DD5C046C0461CE0C117C90E09184E
:103010004A114909930004AA9A184901411A1368F0
:103020000120884003431360CBE740072246134842
:103030000F9902D5C046C04604E0C046C04601E034
:10304000C046C04600280ADA401C06D10E98002867
:1030500003D00020C04311B0F0BD0C98FBE7E90796
:1030600002D10C99491C0C91361800200E9052E6A2
:10307000CCCCCC0CFFFFFF7FF1F7FFFFFEFFFFFF83
:10308000F7B5154682B00027029C2078641C019792
:10309000302802D0002D15D015E020780127641CBF
:1030A000782804D0582802D0002D09D00BE0002D3C
:1030B00001D0102D07D1207800271025641C02E0D4
:1030C000082500E00A250026009610E00099012757
:1030D0006943081829467143020C80B200908E188B
:1030E0003804864201D3012001902078641C2946CF
:1030F00000F0ECFB0028E9DA0398002805D0002F47
:1031000001D0641E00E0029C04600198002806D0F3
:10311000FEF72EFD02210160C81E05B0F0BD00992A
:1031200030040843F9E70000F7B516468AB02F4887
:1031300078446C4603467C33C06F5A689B680DC464
:103140002A487844763003AC0DC80DC43720C0013E
:10315000081837211B30FDF783FD05460C46803DDE
:103160001B3C02D56442012000E0002000270990AA
:103170000FE0E0070BD00C201C497843794432461D
:103180004C394118684600F02EFA6B4607C36410AC
:103190007F1C002CEDD1154F7F442C3F15E0E80734
:1031A00011D02001C0190EC806910893079200683B
:1031B000F04201D198190890324606A903A800F000
:1031C00012FA03AB07C36D10641C002DE7D1324621
:1031D00069460998002803A802D000F02EFA01E001
:1031E00000F001FA0A9B07C30DB0F0BDA4B00000C7
:1031F000034640000A4610B5400D0BD00121C90717
:103200000F24A40200191C0364082143540D214318
:10321000D20207E000210120F2E7D40F4900214348
:103220005200401E0029F8DADB0FDB07184310BDFF
:10323000FFB50D46144685B04868516807F034FB69
:1032400000910190A868A16807F02EFB02910390FD
:10325000A868616807F028FB029A1218824202925D
:1032600001D2012000E00020019A0B18D21800289A
:10327000019202D08A4202D903E08A4201D201209F
:1032800000E000200099081800906868A16807F025
:103290000BFB029A12188242029201D2012000E036
:1032A0000020019A0B18D2180028019202D08A42FD
:1032B00002D903E08A4201D2012000E000200099F7
:1032C0000818009028682168400049004008490813
:1032D0004018EE49471814E001994000C90F08430F
:1032E0000090019802994000C90F0843019002988C
:1032F00003994000C90F08430290039840007F1EC5
:10330000039000980028E7DA0898002801D0E04EE2
:1033100000E00026B74228DAF71BF806C00E15D0E9
:10332000029B2021091A039A8B401A430392029AA6
:10333000019BC2408B401A430292019A009BC240FB
:103340008B4000991A430192C14000917A110BD031
:103350006B460320811A01D5002101E089005958EC
:103360008700401ED951F5D53746039802990028A9
:1033700000D00120014308980291002808460CD093
:10338000002800D001200199019A49050843012134
:10339000D20AC902D202019200E001210E9B012251
:1033A000D207012B02D0002B03D013E0002807D155
:1033B00016E0904204D890420CD1019B0B4209D0F8
:1033C000019B5918019105D10099491C009101D127
:1033D0007F1C0092002803D0102108460020C04620
:1033E00028682168019B009A4840C10F0598C907C9
:1033F00039430EC009B0F0BDFFB587B0099A0898EF
:103400000899536892684068896896460022039339
:1034100017469446089A12685300099A5B08126886
:10342000520052089A1A9B4BD4180A9A002A01D0CB
:10343000352200E040220692002201231546049224
:10344000DB07059324E0002D05D175460346039E56
:103450004D1BB34109D375466646039B491B049D2A
:103460009841059B7519AC465F4163463B4308D0C4
:10347000059B049EDD0776082E435B0804960593A2
:1034800001E0521E641EC50FED0749184041521C51
:10349000069B9A42D7DB002D04D17546039A6B1A1E
:1034A000824101D203200CE0039A0B466B4042405C
:1034B000134303D0014303D0012002E0022000E0C7
:1034C0000020614601910021009702910A9900298C
:1034D00005D06146400201436D4B019102E0800737
:1034E000002302909C423ADA1A1BD006C00E15D077
:1034F000029D2021019C091AC5408C402543029C55
:103500008C4000D001242543019C02953D46C440D7
:103510008D4039462C43C1400194009154111DD077
:103520006D460221002202290CD10320001B07E076
:10353000002804DB8600AE59002E00D00122401C7A
:103540000328F5DB081B02D588002A5004E0800020
:10355000285810438A00A850491EE3D51C460A98F3
:10356000002802980CD0002800D001200199019A6F
:10357000490508430121D20AC902D202019200E0A2
:103580000121109B0122D207012B02D0002B03D076
:1035900013E0002807D116E0904204D890420CD1E5
:1035A000019B0B4209D0019B5918019105D100994B
:1035B000491C009101D1641C0092002803D0102105
:1035C00008460020C04608980999019A00680968D1
:1035D00048400099C30F0798DB07234303608260CC
:1035E00041600BB0F0BD1FB5002300920A460146B2
:1035F00001A8FFF71DFE01AB07CB04B010BD1FB53E
:10360000012300920A46014601A8FFF711FE01AB13
:103610000F2407CBA402C30F4000DB074008001BA8
:10362000002900DB0020490000054908CC0A20439E
:1036300049051843D20A1143DFE71FB50023009262
:103640000A46014601A8FFF7D7FE01AB07CBD4E736
:103650001FB5012300920A46014601A8FFF7CCFEE0
:1036600001AB0F2407CBA402C30F4000DB074008C7
:10367000001B002900DB0020490000054908CC0A96
:10368000204349051843D20A1143B6E702C0FFFFA1
:10369000013C0000FF3F0000C068802108407047E7
:1036A00070B5C468A50713D0650211D4D51FF93DC4
:1036B0000AD0FF3D6D1E07D0FF3DFF3D022D07D113
:1036C00001462431012305E0074E5D1EB54201D3BA
:1036D000012070BD0161C36141600F2109028C436B
:1036E0001443C460002070BDFFFFFF00F7B516460D
:1036F0000C46104600F06EF82078611C61280AD054
:10370000722802D0772839D102E00125002404E094
:103710000225042401E02D4D082402220323012761
:103720000878491C2B2806D0622807D02039C87F8A
:10373000742807D008E01D431443F1E70420054333
:103740003C43EDE71020044300982146FFF720FAA0
:10375000411C13D00021316171600121F5604902E3
:10376000F1617061200704D530460222002100F08B
:10377000EDFB306D384330653046FEBD0020FEBDA8
:10378000F8B50D460646124C206DC10704D041081D
:1037900004D044086400F7E7224610E05420FCF708
:1037A0005DFD070010D07908206D4900012211430A
:1037B0000843542120653846FDF7CBF93A4629469F
:1037C0003046FFF793FFF8BD0020F8BD02800000EF
:1037D00098150020FEB50446466900690F4F019018
:1037E000E56800200090A80707D0204600F058FCAC
:1037F0003046FFF7D7F9002801DA3846FEBD280524
:1038000002D50198FCF75BFD4C212046FDF7A1F99C
:10381000206D4008400020650098FEBDFFFFFFFFBF
:1038200010B500F093FC00F08BFC10BD10B500F05B
:10383000A7FC00F085FC10BDC80212D54803400F5C
:10384000002804D0C803C043012188407047EFF32B
:1038500000800001000903210907084380F3008864
:10386000704700207047000010B500200249029AFE
:1038700000F0AEFC10BD00000000F87F10B502485B
:1038800000F0A6FC10BD00000000C07F7047754628
:10389000FFF7B2F9AE46050069465346C008C000BE
:1038A000854618B020B5FCF7BFFC60BC002749086E
:1038B000B6460026C0C5C0C5C0C5C0C5C0C5C0C5C8
:1038C000C0C5C0C5403D49008D4670473A2800D26A
:1038D0003038202302469A43412A01D31046373814
:1038E000884201D30020C04370470000FFB51F4647
:1038F00089B0139812994005C00FC00705900020A9
:10390000079005460446461E049002903C20491C40
:1039100012910690B9690A98884703901498401E3E
:1039200014901498002841DD03982E2816D01021F9
:10393000FFF7CCFF002834DB0121049107990143F4
:103940001AD0069900290CDB069AC11700F076FC04
:10395000054306980C43001F069006E001200290E4
:103960000EE0002801D001200543012007900298B5
:10397000002805D1361D03E00298002800D0361F2C
:103980001298401C1290B9690A98884703901498BD
:10399000401E149004980028C3D00B991298086018
:1039A000BFE70398702808D0502806D0F9690A9814
:1039B00088470498002815D051E00020039001208A
:1039C0000290049800280AD01298401C1290B969FD
:1039D0000A9888471499491E0029149106DCF96950
:1039E0000A9888470120C0430DB0F0BD2B2804D0B1
:1039F0002D280DD10020C04302901298401C129037
:103A0000B9690A9888471499491E00291491E6DD7E
:103A1000411CE4D00A21FFF759FF0028DFDB03999E
:103A20000A225143081803901298401C1290B96959
:103A30000A9888470A21FFF749FF14990B9A491EF3
:103A40001491129911601499002901DD0028E6DA19
:103A5000F9690A9888470299039848438619139888
:103A60002421084004902846204304D0A10F890750
:103A7000090002D006E005989BE0A90FA4000C43C2
:103A8000AD00B61EE10FC907080002D16D196441EF
:103A9000761E0498002803D00B2002905D4803E0B6
:103AA000282002907D20C0438642039007DA811BC4
:103AB000029808184128029001DD41200290029AE4
:103AC00001200021521E00F0B9FB024628400B469F
:103AD0002140084301D0012000E000200790002091
:103AE000521EC04343412A4023401A4301D00120C3
:103AF00000E0002007990690014352D000210846BB
:103B00000020C0460321059A89050840002A05D0F7
:103B100082008018C20F101840100840801501283C
:103B200002DD0020C04301E0012815D0401C38D040
:103B30000798002835D0069800280DD1029A012058
:103B4000002100F07BFB28402140084301D00120E8
:103B500000E00020002824D0029A0120002100F07B
:103B60006DFB034640198C4661412A1A8C410FD3E4
:103B70000298402807DD0498039E002801D0343EB7
:103B800002E0173E00E0761C01240025E40708E06F
:103B90005B1E62460024E4436241DD43D44305409A
:103BA0000C4003980121081AB04206DA1A49059818
:103BB00008430190002000900EE060006205010BB8
:103BC000E80A1043059A009068460A4313490A43DD
:103BD0003146019206F055FF049800280AD0139848
:103BE000C00714D13868019A0099031D3B60006832
:103BF00006C00CE002A8694606F0F1FE1398C00763
:103C000005D13868029A011D396000680260129877
:103C1000EAE6000002FCFFFF0000F07F0000F03F3A
:103C2000FFB51D4687B01198484A109C129E40056A
:103C30001399C00F761EC007024301920022009222
:103C4000FF22D2051043202291434929059003D039
:103C500017464E2928D04FE03DA002AA0BC80127E5
:103C60000BC2A9690898641C8847761E014607D4D0
:103C700002A8C05D002803D02022914381420AD0CF
:103C8000E96908988847032F36D0082F34D00120DF
:103C9000C0430BB0F0BD7F1C032F01D0082FE0D133
:103CA0000999601C0860DCE7A9690898641C8847CA
:103CB000761E2DD4B84341282AD1A9690898641CDE
:103CC0008847761E24D4B8434E2821D1A969089884
:103CD000641C884701990122D2041143019105997E
:103CE000D200114305910999761E0C6001D4282851
:103CF00006D0E969089888471198C00712D023E0D8
:103D0000A9690898641C8847761E01D4002803DA44
:103D1000E96908988847BAE72928F1D10998641C0D
:103D20000460E9E711982421084207D02868019A25
:103D30000099031D2B60006806C005E028680599FE
:103D4000021D2A60006801602046A2E70000F07FA3
:103D5000494E46494E49545900000000F8B5054601
:103D60000C46C8680521C904884301218905084318
:103D7000E060800602D5204600F0B8F97149E0689D
:103D80000140022903D0204600F05AF9BCE0052189
:103D9000012249030140D20391420FD1C00306D54D
:103DA0006168E06A884200D80846606006E02069E1
:103DB000E06260606069FEF718FFA061A168002200
:103DC000EEB200290EDAE06883050BD4C943A16086
:103DD0000921226049030843E0606068411C61607A
:103DE0000670ACE0E068012149030843E060002070
:103DF00020602069002831D16069FEF7E8FE0125C6
:103E000027462437ED02002816D0A0898005800FB0
:103E100008D0E069FCF722FA0028206102D0E068AF
:103E2000284318E001202761E061E06803210902CE
:103E30008843012189020DE0E069FCF70FFA0028B0
:103E40002061EFD0E0682843E0608105890F03D14D
:103E5000FF2101310843E06020696060E2683A4F69
:103E60002569D0051FD56168E06A884200D80846F8
:103E7000411B05D02246284600F0ECF8002843D12B
:103E8000E068010204D5E56200206560A06053E0AF
:103E9000691CE1626160E169491E3843A160E0602C
:103EA00030462E70F8BD100201D53A4009E0606836
:103EB000411C61600670E06838430A2EE06006D05D
:103EC0000022E16A6068814203D90B4602E00122C8
:103ED000F7E70346A7895B1B7F0504D4E7699F4288
:103EE00001DD002A1ED0814200D801460F1A0020B1
:103EF000E5626560002BA06009DD22461946284670
:103F000000F0A8F8002802D00020C043F8BD002F20
:103F100008D0A069E5626560C01BA061E06810215F
:103F20000843E060E068000209D56168A069E562C5
:103F3000491B40186560A0610120C043F8BD3046B0
:103F4000F8BD00008210000000000100F8B5044632
:103F500016460D464769007B800730D03846FEF78D
:103F600036FE00282BD132461026002A25D0012A01
:103F700002D0022A23D104E0204600F06FF945194F
:103F80001BE03846FEF731FEE16831430028E1606E
:103F900004DA204600F054F80120F8BDC9030BD51F
:103FA0006268E16A914200D81146A26989182269C3
:103FB000891A814200DD08462D18002D01DA022001
:103FC000F8BDE16A6068E268814206D29103E0626E
:103FD00003D5012149048A433243A669AE4211DC6C
:103FE000E16A814201D90B4600E003469F1923692B
:103FF000FF1AAF4206DD814201D90F4600E00746B5
:104000009F4206D1202002430020A060A5622060CC
:104010000DE0AD1BE669AE1B8142A66000D90846E3
:10402000C01A281A20605819606020208243034873
:1040300002400020E26040342072F8BDBFCFD7FFBD
:10404000C1688022114392039143C16000218160C5
:1040500001607047F7B514460E463348D568576976
:10406000054209D03846A169FEF7B7FD002811DBEB
:104070002D48C0430540E5602B463246384600993E
:10408000FEF796FD4200A1695208B21A891800286D
:10409000A16104D02046FFF7D3FF0020C043FEBD3E
:1040A00070B504460569C06A6168884200D8084650
:1040B000E1680522D2049143E160C90314D5A84206
:1040C00009D02246411B2846FFF7C4FF002802D032
:1040D0000020C04370BDE56200206560A060E0681C
:1040E000012109048843E060002070BD10B504463A
:1040F000C06820218843E060A16AA06988420ED090
:104100002046FFF7CDFFE068032109038843102113
:104110000843E060A06AA0612069E0626060034932
:10412000E0680840E06010BD10000200BFBFFFFF64
:1041300010B50446C046C0462046FCF748F810BDFE
:1041400010B5002801D000F073F810BD10B501467D
:1041500002A000F0A4F8012010BD0000534947520E
:10416000545245443A2052656469726563743A203A
:1041700063616E2774206F70656E3A200000000046
:1041800010B5012805D0002103A000F088F8012017
:1041900010BD09A1F8E7000053494752544D454D61
:1041A0003A204F7574206F662068656170206D65D8
:1041B0006D6F7279000000003A2048656170206DD3
:1041C000656D6F727920636F7272757074656400CB
:1041D00010B50C461107090F092904D00A290AD085
:1041E00008290CD104E011460820FFF725FB06E062
:1041F000510606D501E0510601D50120C007214630
:1042000010BDD10607D501010909CC084907000EE8
:104210000006044309E0410F20024907000A014358
:10422000200E00061D22D14101430846E7E70000A9
:1042300001491820ABBEFEE72600020010B5202A77
:1042400004DB0146203A9140002010BD914020231C
:104250009C1A0346E3401943904010BD10B5014637
:10426000C268900703D0900607D5886A0AE0FDF778
:104270007FFC01210160881E10BD8B694868C01851
:104280000B69C01A40310B7A002B02D0497A401AD0
:1042900010BD1103FCD50028FADD401E10BD70B51D
:1042A00005460C460A2000E06D1C00F043F8002D86
:1042B00006D028780028F7D102E0641C00F03AF814
:1042C000002C02D020780028F7D10A2000F032F824
:1042D00070BD000070B505464800440D124B00202B
:1042E000002C0AD0634008D09A4206DA6642B242F5
:1042F00003DD12054019514170BD002C08D0002B80
:1043000009D0C90FC907002AF6DB084A114370BD5E
:10431000C90FC90770BD28460A03104302D0002008
:10432000034970BD284670BDFF0700000000F07F04
:104330000000F87F08B5694608700320ABBE08BDD1
:10434000014606480079002801D000207047002966
:1043500002D00248C07808700120F7E7800F0020E3
:10436000FFB581B0054614461E460A9F19480079DC
:10437000002802D0002005B0F0BDFF2151311648C1
:10438000FCF7E7FBFF2229461348401CFCF7E4FB3F
:104390001F2210483F380299FCF7DEFB002C0BD09F
:1043A0002078002808D01F2221460A481F38FCF731
:1043B000D3FB012107484170064886704038C76426
:1043C00000214030C17001210171012002490870B3
:1043D00000BFD0E7800F0020400E002010B55448E9
:1043E0000079002800D110BD00F0FAFA5148007899
:1043F000012804D0022822D0032878D14FE04D486C
:10440000401CFCF7D5FA84B222464A49491C0120D7
:1044100009F066F94B21C9004748FCF79AFB0020D8
:10442000464908704880464808F087FE01F08AFD3A
:104430003F494039886402203E49087075E001F028
:1044400081FD3B494039896C411A39484038C06C7C
:10445000814203D303203749087066E0344840782E
:10446000002811D032493F393348FCF75AFA002866
:1044700014D02F491F393048FCF753FA00280DD0CB
:1044800003202C49087009E029493F392A48FCF7E4
:1044900048FA002802D003202649087045E000248D
:1044A0002348407800280FD021493F392248FCF7A3
:1044B00038FA002810D01E491F391F48FCF731FA7E
:1044C000002809D0012407E019493F391A48FCF7B0
:1044D00028FA002800D00124002C09D0012114481A
:1044E000C1700021017100201249087015E015E02B
:1044F0000F488078002809DD0D488078401EC1B241
:104500000B48817001200B49087006E00021084823
:10451000C170017100200749087006E000200549BC
:10452000087000210248017100BF00BF00BF5AE7B8
:10453000800F0020400E0020F00F0020900F002080
:10454000D800002010B5112000F078F810BD000050
:1045500010B501221146094801F0EEFC0A2001F0D5
:104560001BFBFF20F53000F07DF8002800D010BDC7
:1045700000F03AF8FFF7E6FF00BFF8E70008005048
:1045800008B504226946022006F06CFB002804D01E
:1045900001201249C873801E08BD6946C87800060C
:1045A000897809040843694649780902084369463D
:1045B00009780843094908600846006808494864C2
:1045C000486C0849FCF742FB64214843081A044937
:1045D000487000200149C87300BFDDE7D8130020F0
:1045E00090000020C0EA21011CB50021019100913A
:1045F000012201A90A2006F035FB002804D0012081
:104600000D490875801E1CBD012269460B2006F06D
:1046100029FB002804D0012007490875801EF2E715
:10462000684600790449487368460078887300201A
:10463000087500BFE7E70000D813002038B504462E
:10464000684604702004010E6846417002226946E3
:10465000002006F018FB002802D00020C04338BD1F
:104660000020FCE738B5044601F06CFC054614E078
:1046700000200090012269460A2006F0F3FA002883
:1046800007D16846007880210840002801D000202A
:1046900038BD0A2001F080FA00BF01F053FC401B36
:1046A000A042E5D30020C043F2E70000F0B589B096
:1046B00007460C4606F0C4FB089006F0C1FB0790C5
:1046C00086A287A1089806F059FB86A286A10898C1
:1046D00006F054FB8648007800280ED006F0B0FBA8
:1046E00005468348027883A1284606F0FDFA2A464B
:1046F00082A1079806F014FB00BF83484088642815
:1047000002DD64208049488006F09AFB06907E49CD
:104710004888FCF7DCFF05462A460B4675A106983B
:1047200006F00EFB79A1069A079806F0F9FA76488A
:10473000103007F046F8744988800846808864285D
:1047400001DD6420888006F07BFB05906E49888837
:10475000FCF7BDFF05462A460B4666A1059806F004
:10476000EFFA6BA1059A079806F0DAFA66481A3054
:1047700007F027F86449C88006F062FB049062499C
:10478000C888FCF7A4FF05462A460B4659A10498A1
:1047900006F0D6FA5FA1049A079806F0C1FA5A48C3
:1047A000C089642802DD64205749C88106F048FBAF
:1047B00003905549C889FCF78AFF05462A460B46EF
:1047C0004CA1039806F0BCFA54A1039A079806F08E
:1047D000A7FA5448C0210D58803000221346416C7E
:1047E000284609F02DFA05D200224E48C0231A505F
:1047F000803042644B49C02045588031496C0022CA
:10480000494B284609F04EFA06D20022464845494F
:10481000C0235A508031486406F012FB0290414890
:10482000C0210D5880302A4632A1436C029806F010
:1048300087FA3EA1029A079806F072FA3948B82121
:104840000D58803000221346C16B284609F0F8F954
:1048500005D20020334AB82398508032D0633149C2
:10486000B82045588031C96B0022334B284609F0E7
:1048700019FA06D2002230492A48B8231A5080304B
:10488000C16306F0DDFA01902648B8210D5880304A
:104890002A4618A1C36B019806F052FA27A1019A83
:1048A000079806F03DFA28A1079A089806F038FA0A
:1048B000089806F0B7FB009021463846FCF747F908
:1048C000621E38460099FCF747F90098FBF7F7FCA1
:1048D000089806F0DFFA09B0F0BD000031320000A0
:1048E00069640000312E300076657273696F6E0066
:1048F0000000002076616C7565000000436F7665EE
:104900007253746174757300900000204348340042
:104910004832530052616461720000004261747455
:1049200065727900F0130020008066404C6F6E675E
:104930006974756465000000008056404C617469BC
:104940007475646500000000706172616D73000031
:1049500010B5034800F0FAFF024800F0F7FF10BD61
:10496000240900204C08002010B5034800F0EEFF99
:10497000024800F0EBFF10BD94080020DC08002086
:1049800030B51C25446C2C400125A540046C6560A5
:10499000046863608468102C04D10468A260046811
:1049A000E16003E00468A1600468E26030BD70B5B6
:1049B00003460024002010E00D5C461C8E5D36028C
:1049C0003543861C8E5D36043543C61C8E5D360627
:1049D0003543A6009D51641C001D9042ECD370BD70
:1049E00030B591B033E0402201A91D4808F005FC24
:1049F0000446002C00D12FE0002026E01949498808
:104A0000194A914209D201A90A5C16494B88498882
:104A1000491C144D69801549CA5412494988022914
:104A200011DB10494988891E104A515C0D290AD1B1
:104A30000C494988491E515C0A2904D10949097861
:104A4000491C084A1170411C88B2A042D6DB0448B8
:104A500008F095FB0028C6D000BF11B030BD0000A3
:104A6000D8000020900F002057020000F00F002017
:104A700030B503460C460A48834204D39000C01860
:104A8000084DA84201D9012030BD002104E0880072
:104A900018588D006051491C9142F8D30020F3E76B
:104AA00000000808FF170808F8B505460E46174627
:104AB000002000901C48854208D3B80040191B49CB
:104AC000884203D8A807800F002801D00120F8BD34
:104AD00072B601F0CDF800241EE0A100481901F0E3
:104AE00071F800900098002800D017E0A00032581C
:104AF000A0004119022001F085F8009000980028DC
:104B000000D00BE0A0002858A1007158884202D0C4
:104B10000120009002E0641CBC42DED300BF01F023
:104B200067F862B60098D2E700000808FF17080887
:104B300010B5202001F0E6F8FF20013001F0E2F886
:104B40000120000301F0DEF80120400301F0DAF853
:104B500010BD70B5034614460022002015E09500F4
:104B60004D5D1D5495004D5B2D042D0E461C9D552D
:104B700095004D592D022D0E861C9D5595004D59C1
:104B80002D0EC61C9D55521C001DA042E7D370BDC2
:104B900072B600BFFEE70000002039498969FF2294
:104BA00001321140914208D136494969022211432C
:104BB000344A5161FF210131084331498969012299
:104BC00052021140914208D12E49496901221143F4
:104BD0002C4A51610121490208432949896901226E
:104BE00092021140914208D1264949690822114395
:104BF000244A51610121890208432149896901221E
:104C0000D2021140914208D11E4949690422114340
:104C10001C4A51610121C9020843194989690122CD
:104C200052031140914208D116494969102211439B
:104C3000144A51610121490308431149896901223C
:104C400052041140914207D10E4949692022114373
:104C50000C4A516120210843094989690122120443
:104C60001140914208D10749496940221143054A40
:104C7000516101210904084301498861704700001E
:104C8000002002408015002070B5044601F05AF95A
:104C900005460BE0601C002808D0002C04D001F071
:104CA00051F9401BA04201D9032070BD1F48806903
:104CB000C007C00F0028EDD11C48806902210840C0
:104CC000022801D11949886118488069FF21013102
:104CD0000840884223D0154880694900084088422E
:104CE0001DD01248806949000840884217D00F48FB
:104CF000806949000840884211D00C4880698900C9
:104D0000084088420BD00948806909010840884260
:104D100005D00648806949100840884203D1FFF752
:104D20003BFF0120C1E70020BFE700000020024058
:104D300000B585B014216846FBF70BFF10480090C2
:104D4000032001900020029069460520000700F032
:104D5000E9FF0C4800900320019000200290694672
:104D6000094800F0DFFFFE200090032001900020A2
:104D700002906946054800F0D5FF05B000BD00006F
:104D8000E118000001FC0000000400500008005081
:104D900010B500210948817740384079002803D1B7
:104DA00001200749087002E0042005490870FF212E
:104DB00051310448FBF7CDFE10BD0000D00F00209C
:104DC00020000020400E002030B5FFB0FFB0C9B079
:104DD000FD480078002807D0FB480078122803D04F
:104DE000F9480078132803D17FB07FB049B030BDB7
:104DF000F6486844FFF7A4FA002800D1F4E7F24827
:104E00000078030005F068FD13F40B213951ABB8AD
:104E1000C4D9F9F2F1F0EFEEEDECEBEAF400EC4876
:104E20006844007E00280CD00220E7490870E12089
:104E3000C00008230022E7A10090E7A0FFF790FA46
:104E400002E01320E049087066E3E1486844007E10
:104E500000280ED004F0D2FA0320DB490870E120CC
:104E6000C00008230022DBA10090DEA0FFF778FA43
:104E700002E01320D44908704EE3D5486844007E10
:104E800000280ED004F0E8FA0420CF490870E12091
:104E9000C0000A230022D6A10090D6A0FFF760FA36
:104EA00002E01320C849087036E3C9486844007E10
:104EB000002850D004F080FAD1480079012832DD72
:104EC000CF48007963282EDA0021CD484030417761
:104ED000403800790C2802DA0F20C9490871C84807
:104EE000407900280CD10520B7490870E120C000A6
:104EF00001230022B7A10090C2A0FFF731FA2DE0F4
:104F00000C20B1490870C34BC3A201214902C6A8B5
:104F1000FBF704FBC7480823C7A2AEA10090C6A8B0
:104F2000FFF71EFA1AE0B6484030807F401CC1B23D
:104F3000B34840308177142903DD1320A24908705B
:104F40000CE0E120C0000A230022A9A10090A9A042
:104F5000FFF706FA02E013209B490870DCE2062006
:104F600099490870E120C0000123002299A1009016
:104F7000B3A0FFF7F5F9CFE2072093490870AD48D9
:104F80001423002293A10090B1A0FFF7E9F9C3E236
:104F90008F486844007E00280BD008208A4908709A
:104FA000AE48142300228BA10090ADA0FFF7D8F9E2
:104FB00002E0132084490870AEE285486844007E10
:104FC000002816D0092080490870A4481423002224
:104FD00080A10090A5A0FFF7C3F90DE053E289E29C
:104FE000D8E1DDE0B5E08AE046E029E01BE004E03E
:104FF0008EE21320744908708EE275486844007E82
:1050000000280CD00A2070490870E120C000082355
:10501000002270A1009098A0FFF7A2F902E01320EF
:105020006949087078E20B2067490870E120C000E8
:105030000523002267A1009096A0FFF791F96BE28B
:1050400063486844007E002812D0724B72A201218E
:105050004902C6A8FBF762FA0C205B490870754844
:10506000082375A25BA10090C6A8FFF779F902E0BA
:105070001320554908704FE255486844007E0028C7
:1050800039D06449743916A8FBF760FC614954397A
:105090001EA8FBF75BFC5F49343926A8FBF756FCDA
:1050A000FF20013046A90022009201910290804A1F
:1050B000002316A807F030F8002818DD46A8554947
:1050C00074390B4620337BA20091019001214902E3
:1050D000C6A8FBF723FA0D203B4908705548082362
:1050E0007CA23CA10090C6A8FFF73AF906E0132085
:1050F0003549087002E01320334908700CE2344847
:105100006844007E002820D001203D4948710E20CF
:105110002D4908703F4854380346203B6FA2FF21B9
:105120000131009086A8FBF7F9F986AB75A2012141
:105130004902C6A8FBF7F2F94848082377A225A13F
:105140000090C6A8FFF70CF902E013201E49087072
:10515000E2E11F486844007E00281DD00F201A4954
:1051600008702C4854380346203B6EA2FF210131C1
:10517000009086A8FBF7D2F986AB62A20121490212
:10518000C6A8FBF7CBF93548082364A211A100900B
:10519000C6A8FFF7E5F802E013200B490870BBE151
:1051A0000B486844007E00280CD05022684902A8B1
:1051B000FBF714F8102004490870164854380346C9
:1051C000203BC7E0E2E000002000002018050000BE
:1051D000000500004F4B000041542B51434349440C
:1051E0000D0A000041542B4347534E3D310D0A0038
:1051F0004353510041542B4353510D0A000000000A
:10520000900F002041542B514D54444953433D309D
:105210000D0A00006414002041542B514D544F508E
:10522000454E3D302C222573222C313838330D0A5F
:1052300000000000983A0000514D544F50454E0078
:1052400041542B514D54434C4F53453D300D0A00B2
:1052500041542B4346554E3D310D0A008813000042
:1052600041542B43455245473F0D0A0041542B43BF
:105270005245473D310D0A0041542B514D54434690
:10528000473D22636C6F7564222C302C332C310D1A
:105290000A00000041542B514D544346473D2273B0
:1052A000657373696F6E222C302C310D0A0000007B
:1052B00080D8DB7041542B514D54434F4E4E3D30FE
:1052C0002C222573222C222573222C222573220DB9
:1052D0000A000000514D54434F4E4E002473797321
:1052E0002F25732F25732F7468696E672F70726F67
:1052F00070657274792F706F73742F7265706C792A
:105300000000000041542B514D545355423D302C68
:10531000312C222573222C310D0A00002B514D54C3
:1053200053554200247379732F25732F25732F74DF
:1053300068696E672F70726F70657274792F64651B
:1053400073697265642F6765742F7265706C79007C
:1053500040E0000872A2FF210131009086A8FBF70F
:10536000DDF802A8FBF724FB044686AB76A20121F8
:1053700049020090C6A8FBF7D1F87B4808237BA21E
:105380007DA10090C6A8FEF7EBFF02E013207B4949
:105390000870C1E07A486844007E002868D07948E7
:1053A00005F0C0FF0546002D57D00024284606F022
:1053B000D3F800280BD17448816A7448806A81420E
:1053C00005D07248816A70488162601CC4B2284668
:1053D00006F012F9002817D16B48C16A6B48C06A01
:1053E000814211D06948C16A6748C1626748803804
:1053F000B82109588030C26B63488038B8231950EF
:105400008030C263601CC4B2284606F055F90028FB
:1054100017D15D48016B5D48006B814211D05B483C
:10542000016B5948016359488038C0210A588030BF
:10543000416C55488038C0231A5080304164601C4C
:10544000C4B2002C05D006F01FF87D20C00000F08B
:10545000A3FB2846FAF733FF00BF02204C498865BA
:1054600001214B484030017712204449087009E07F
:1054700002204749886501214548403001771220C4
:105480003E49087048E042484030C07F012830D192
:105490004048007900282CD102213D484030C17796
:1054A000FF2191313C48FFF701F937486038034646
:1054B000203B3AA2FF210131009086A8FBF72EF88D
:1054C0003548FBF775FA044686AB1FA20121490255
:1054D0000090C6A8FBF722F82348082323A226A1A0
:1054E0000090C6A8FEF73CFF002802D011202349F7
:1054F000087011E031486844FEF722FF002806D00A
:1055000012201E490870032121484030C17703E072
:1055100013201A49087000BF00BF00BF64E40000F8
:10552000247379732F25732F25732F7468696E6721
:105530002F70726F70657274792F6465736972650C
:10554000642F67657400000041542B514D54505531
:105550004245583D302C312C312C302C22257322E1
:105560002C25640D0A000000881300002B514D54B7
:1055700052454356000000004F4B00002000002021
:1055800000050000F00F00207014002038150020E6
:10559000900F0020800F00204812002024737973A0
:1055A0002F25732F25732F7468696E672F70726FA4
:1055B00070657274792F706F7374000018050000A5
:1055C00000B587B0142102A8FBF7C3FA00BF7A48E0
:1055D000C06A012108437849C8620846C06AC0070A
:1055E000C00F019000BF00BF00BF0846C06A022183
:1055F00008437149C8620846C06A02210840019008
:1056000000BF00BF00BF6C48C06A042108436A495C
:10561000C8620846C06A04210840019000BF00BF6C
:10562000480302900120039000200490012005907F
:1056300002A90520000700F075FB0420029001205C
:105640000390002004900120059002A95B4800F01F
:1056500069FB012040020290012003900020049089
:105660000120059002A9554800F05CFB1020029033
:1056700001200390002004900120059002A905203C
:10568000000700F04FFB0220029001200390002051
:1056900004900120059002A9484800F043FB012036
:1056A0004002029001200390002004900120059008
:1056B00002A9434800F036FBFF2001300290012090
:1056C0000390002004900120059002A93C4800F0BE
:1056D00029FBFF200130029011200390002004904C
:1056E0000120059002A90520000700F01BFB022005
:1056F000029001200390002004900120059002A94F
:105700000520000700F00EFB01200290039000200E
:1057100004900120059002A9294800F003FB2020F5
:1057200002902120000403900020049002A9234845
:1057300000F0F8FAFF2001300290112000040390DD
:105740000020049002A91D4800F0ECFA012040035B
:1057500002901120000403900020049002A9184830
:1057600000F0E0FA012000030290212000040390E1
:105770000020049002A9124800F0D4FA0022114936
:105780000520000700F0D8FB00220F490B4800F06D
:10579000D3FB00220C49FB31094800F0CDFB00226D
:1057A0000121072000F0FAFE072000F0E9FEFFF7D4
:1057B000BFFA07B000BD0000001002400004005016
:1057C00000080050128100000602000010B50322FC
:1057D0000249022007F084FF10BD000015000020E0
:1057E000F0B58DB0182107A8FBF7B3F9182101A86F
:1057F000FBF7AFF900240027264807F093FC074683
:10580000002F01D10DB0F0BD152F01DD152000E0F6
:1058100038460646324607A91E4807F0CDFC00254B
:105820002EE007A8405D0A2828D1681C84B22246D1
:1058300001A9184807F0E1FC002C06DD601E01A953
:10584000085C0A2801D1601E84B2002C06DD601EAF
:1058500001A9085C0D2801D1601E84B2002001A9B5
:105860000855002C09DD68460079432805D101A8B8
:1058700007F098F8074807F060FCC3E7681C85B29A
:10588000B542CEDB152E02D1024807F05DFC00BF09
:10589000B8E7000008020020014600222520405CF5
:1058A000022808D00420C86300BF002324204354EA
:1058B00000BF01207047086800680E2398430B68FA
:1058C000186008680068400840000B6818601C23D6
:1058D000486C184001238340086C43600123252055
:1058E000435400BF00232420435400BF1046E1E787
:1058F00070B5044600252520005D022803D0042051
:10590000E063012520E0206800680E2188432168BB
:1059100008602068006840084000216808601C2179
:10592000606C084001218140206C416001212520EC
:10593000015500BF00212420015500BFA06B0028A5
:1059400002D02046A16B8847284670BD70B504463A
:10595000206C0568206806681C20616C01400420EA
:105960008840284000281DD004203040002819D04D
:105970002068006820210840002805D120680068C0
:1059800004218843216808601C21606C08400421C0
:105990008140206C4160206B00285AD02046216B4A
:1059A000884756E01C20616C014002208840284056
:1059B000002825D002203040002821D0206800682F
:1059C00020210840002808D1206800680A21884367
:1059D000216808600121252001551C21606C0840C8
:1059E00002218140206C416000BF0021242001552C
:1059F00000BFE06A00282CD02046E16A884728E0F2
:105A00001C20616C0140082088402840002820D0DC
:105A10000820304000281CD0206800680E218843F0
:105A2000216808601C21606C084001218140206CC5
:105A300041600120E06301212520015500BF0021C4
:105A40002420015500BF606B002802D02046616B06
:105A5000884770BD70B50446002C01D1012070BD8F
:105A6000244A2168881A1421FBF7F0F8800060644A
:105A70002048083820640221252001552068056847
:105A80001D480540E168A068084321690843616931
:105A90000843A1690843E1690843216A08430543B3
:105AA0002068056001218903A068884217D0114849
:105AB0007830806A1C22616C11400F228A4090432A
:105AC0000C49783188621C22616C11406068884002
:105AD00008497831896A084306497831886200208C
