:020000040800F2
:10000000003C0020250200081D450008BB3F0008F9
:1000100000000000000000000000000000000000E0
:100020000000000000000000000000008146000801
:100030000000000000000000AB010008BD46000801
:100040003702000837020008A945000837020008F7
:10005000370200083702000837020008B51400080C
:100060000000000037020008751300089D13000807
:100070003702000837020008F5520008370200086E
:10008000B5470008370200083702000800000000EA
:10009000370200083702000837020008370200085C
:1000A000370200083702000837020008D55200085E
:1000B000E5520008370200080000000000000000C0
:1000C00000F002F800F047F80CA030C808382418F7
:1000D0002D18A246671EAB4654465D46AC4201D180
:1000E00000F039F87E460F3E0FCCB646012633426B
:1000F00000D0FB1AA246AB4633431847EC7F000002
:100100000C800000103A02D378C878C1FAD85207A0
:1001100001D330C830C101D504680C6070470000BD
:100120000023002400250026103A01D378C1FBD813
:10013000520700D330C100D50B6070471FB501F0E6
:1001400063F804000020002107F01AFE401C6060E4
:100150001FBD10B510BD01F060F81146FFF7EEFFAE
:1001600005F076FB01F078F803B4FFF7F2FF03BC6B
:1001700001F07AF8084B19680868203080F3098884
:10018000022080F31488BFF36F8F3FBCAE4608BCDB
:1001900004BC62B61847000044000020EFF3108052
:1001A00072B6704780F310887047EFF309800E4BEA
:1001B0001A6820381060F0C044464D4656465F46E7
:1001C000F0C008B572B606F0C9FE62B60CBC116884
:1001D00008681030F0C8A046A946B246BB4680F376
:1001E00009882038F0C818474400002070B505463B
:1001F0000C46164602E00FCC0FC5103E102EFAD268
:10020000082E02D303CC03C5083E042E07D301CC2D
:1002100001C5361F03E021782970641C6D1C761E11
:10022000F9D270BD0748804707480047FEE7FEE760
:10023000FEE7FEE7FEE7FEE704480549054A064BF0
:1002400070470000B1470008C100000800360020D8
:10025000003C0020003800200038002010B500F0DD
:10026000D3FF001D10BD00BF197B0000FEB5054681
:1002700010460C46184373D0AE468C460020AD1A8B
:1002800001469C4167D36646002701243D46B61AC5
:100290009D4102D313463A462124654676462F04F3
:1002A000360C3E432D0CB61A9D4104D3150C1B048D
:1002B0002B4312041034654676462F06360A3E4319
:1002C0002D0AB61A9D4104D3150E1B022B431202B0
:1002D0000834654676462F0736093E432D09B61A7F
:1002E0009D4104D3150F1B012B431201241D6546AC
:1002F0007646AF07B6083E43AD08B61A9D4104D313
:10030000950F9B002B439200A41C65467646EF0791
:1003100076083E436D08B61A9D411AD392185B4188
:10032000641C16E00018764665464941B71A9D419F
:100330000191009009D36046B11A98418E468446D7
:10034000009801990025401C6941DD0752082A43A5
:100350005B08641EE6D57246634603B0F0BDFFE756
:1003600000200146C046C0462A462346F5E7000065
:10037000034670B502460B439B070FD10E4CE601B6
:1003800000E008C208C91D1B9D433542F9D0D9B20F
:100390001170521C00290DD01B0AF8E70B78491C7C
:1003A0001370521C002B05D00B78491C1370521C83
:1003B000002BF3D170BD000001010101F8B5042A42
:1003C0002CD3830712D00B78491C0370401C521E9B
:1003D00083070BD00B78491C0370401C521E830707
:1003E00004D00B78491C0370401C521E8B079B0FD6
:1003F00005D0C91ADF002023DE1B08C90AE0FFF779
:10040000F5FEF8BD1D4608C9FD401C46B4402C430E
:1004100010C0121F042AF5D2F308C91A521EF0D4D4
:100420000B78491C0370401C521EEAD40B78491CFF
:100430000370401C012AE4D409780170F8BDD2B2DF
:1004400010B513029A1813049A1800F00EF810BD94
:1004500001E004C0091F0429FBD28B0701D50280EB
:10046000801CC90700D00270704700290BD0C30759
:1004700002D00270401C491E022904D3830702D512
:100480000280801C891EE3E70022EEE70022DFE7FE
:10049000024670B50A4392072AD11E4DEE0104C8E8
:1004A00008C9541B9443344017D0D0B2D9B2401A73
:1004B0002106014310D190B299B2401A21040143A0
:1004C0000AD110021902000A090A401A2102014346
:1004D00002D1100E190E401A70BD9A42DFD010BA28
:1004E00019BA884201D9012070BD0020C04370BDF7
:1004F00002780B78401C491C002A09D09A4207D187
:1005000002780B78401C491C002A01D09A42EFD097
:10051000D01A70BD01010101002203098B422CD3C6
:10052000030A8B4211D300239C464EE003460B4343
:100530003CD4002243088B4231D303098B421CD3A5
:10054000030A8B4201D394463FE0C3098B4201D397
:10055000CB01C01A524183098B4201D38B01C01ACF
:10056000524143098B4201D34B01C01A5241030946
:100570008B4201D30B01C01A5241C3088B4201D3F5
:10058000CB00C01A524183088B4201D38B00C01AA2
:10059000524143088B4201D34B00C01A5241411AC9
:1005A00000D201465241104670475DE0CA0F00D0AC
:1005B0004942031000D34042534000229C460309A5
:1005C0008B422DD3030A8B4212D3FC22890112BA2B
:1005D000030A8B420CD3890192118B4208D3890103
:1005E00092118B4204D389013AD0921100E089091B
:1005F000C3098B4201D3CB01C01A524183098B42FC
:1006000001D38B01C01A524143098B4201D34B01E4
:10061000C01A524103098B4201D30B01C01A524147
:10062000C3088B4201D3CB00C01A524183088B42CE
:1006300001D38B00C01A5241D9D243088B4201D357
:100640004B00C01A5241411A00D201466346524142
:100650005B10104601D34042002B00D54942704741
:1006600063465B1000D3404201B50020C046C0463F
:1006700002BD7047704770470246C80FC0078143EC
:100680004B0030B54B405B009B0D20D01923DB069F
:10069000C91801231B05994220DB0324A407042564
:1006A0001346AB400BD3002B04D1EB0613409B0049
:1006B000E34204D401246407002312195941FF23A3
:1006C0001B0599420BD2C9000143500F09E0CB0230
:1006D00004D501430803024305D0054830BDFF217E
:1006E000C905084330BD084607210905884330BDC8
:1006F0000000C07FF0B50C46871A9C410D46861A53
:100700009D4103D2C01BA141D21963410D0D1F0DA4
:10071000C94EEC1BAE435CD07F057F0D0026002F39
:1007200051D02D05AC46A943DD020123ED0A1B057E
:100730001D4320231B1B24D41746E7403818714162
:100740002F46E740CC199D402818314661410C0DD9
:1007500027D161449A4013D50023401C59415200CF
:100760000ED14008400001224B005205D34207D36E
:1007700005204007C14201D5B04900E0B0493046EC
:10078000F0BD6B00002A00D001229A181F23203CE4
:100790001B1B01D5002302E0E540281871410C0D18
:1007A000D7D0012424050919C407CD0740084908FA
:1007B000E40F28436144002CD5D00024401C614143
:1007C0009A40D0D1CDE76A05520DD9D1C90FC907DA
:1007D000D5E79C4D4E00002801D0012400E0002404
:1007E00034195F00002A01D0012600E00026BE195E
:1007F000954FAC420CD8AE420AD8B44206D001257F
:100800006D05EC42BCD010461946F0BD9942FCD0B3
:1008100000203946F0BDF0B51FB40C460F46811AD2
:100820009F412546861A9D4106D20125ED076F405E
:10083000401ABC4152187B41210D1E0D8D1BAC4648
:100840007D4D8D437ED075056D0D7CD00D05AE467A
:10085000AC431B031B0B794D52429D41202366463E
:100860009B1B14D31746F74038180026009074419C
:1008700060462F460741E41900989D4028186641BC
:1008800016D4714671189A4025D5012320E093189B
:100890002A466A415200002B00D0521C1E23203EE3
:1008A0009B1B002B61DD3541EE1728186641E8D50A
:1008B000001876415B1C9A4000D3401C4B05F3188E
:1008C0001524E34010D3002B52D071467118D30F7A
:1008D000C01802D3491C05B0F0BD0123DB079A42C2
:1008E000F9D140084000F6E701225205B21801D1C3
:1008F000002853D00123CC0ADB029943891E002A29
:1009000008D1020C03D0020C0004103902E00246A8
:10091000002020390023550B05D112020823550B66
:1009200001D152010D23550C01D112011B1DD50C13
:1009300001D192009B1C150D01D152005B1C20259A
:10094000EE1A01E02CE022E00546F5401543984000
:10095000CA1AE10769181305C918002ABBDA03206F
:1009600040070818C10FC9070FE071466118B2E7C8
:10097000F10740080843711071444A000CD001236C
:100980005B059A42A7D2C90FC9070020A3E7490512
:10099000490D26D1002001E00028F4D100219AE77A
:1009A000284D6600002801D0012100E000217118C7
:1009B0005F00002A01D0012600E00026BE19224F68
:1009C000A94210D8AE420ED8B14208D001256D051B
:1009D000E94206D01946A802414010467BE79C42F6
:1009E00001D0214677E70020394674E710B50C4660
:1009F0005C4005D50124E4076340FFF70CFF10BD00
:100A0000FFF778FE10BD30B40C465C4004D50124DD
:100A1000E407634030BC6DE630BCFCE670B50124F1
:100A2000E40761400D465D4002D4FFF763FE70BDF0
:100A30006340FFF7F0FE70BDFF0700000000F0FF0D
:100A40000000F07F0000E0FF0000F87FF0B5F94DF6
:100A50000C091E092C402E402F468BB0A7437DD099
:100A6000B543FCD0002E7AD0002CFCD00D465D4062
:100A7000ED0F2543AC1BFF25AD0464190894C50296
:100A8000440DC9022143500DDC0204430120C0077C
:100A900001430443D2020191200C110C00958C46B5
:100AA000010423468B430A9161460904E24D8A43BF
:100AB0000991010A7D4449198039097805464D4359
:100AC00001266D18F605751B6943C90C640B891C5A
:100AD0004C436418B5012C1B250C2E04B4434C4325
:100AE0004D43210C691889090591009DE90701D042
:100AF0000121C90704912C4601996708CD072F43AE
:100B00004C08059DE10B4D432D0C29466646754367
:100B100002950D4645432E46029D7D1BB44100952E
:100B20000D465D4301942C0C2F040D465543AE46F3
:100B30002D0C3D43029503947546049C2D04641BC3
:100B4000049406D2029C039D641C00267541039503
:100B5000029401AC70CC009F7D1B01E03EE162E19C
:100B6000B44109040095079101940599A4086143D3
:100B7000090C0C464443650BE7040C466646744377
:100B8000A646640B3C43039502947446049DE4041A
:100B90002C1B049406D2029C039D641C0026754104
:100BA0000395029401AC70CC009F7D1BB44101946D
:100BB0000C465C430095650FE7000C465443A6467F
:100BC000640F3C43039502947446049DE4002C1B7F
:100BD000049406D2029C039D641C00267541039573
:100BE000029401AC70CC009F7D1BB441AE09AF06EE
:100BF000049DC900AD092F43049DA406AD060495CC
:100C0000079D344369180791059DE10B4D432D0C59
:100C100029466646754302950D4645432E46029D7C
:100C20007D1BB44100950D465D4301942C0C2F04AF
:100C30000D465543AE462D0C3D4302950394754633
:100C4000049C2D04641B049406D2029C039D641C26
:100C5000002675410395029401AC70CC009F7D1B6A
:100C6000B44101948C050694079C890A611800958B
:100C70000791019C0599A4086143090C0D46454361
:100C8000680BEF040D46644665436C0B3C43049FC0
:100C9000ED047D1BAC4602D20025641C6841009E19
:100CA000019D371B85410846584301950C46460F68
:100CB000C5005443600F28436546E4002C1B02D254
:100CC0000025401C6E41019D3F1AB5412846BD09D3
:100CD000800628438446A009BF064E020699A40652
:100CE00076180743079D002068410A990790194329
:100CF0000020099B00906046FF1913434041E20F1A
:100D000064003A43A4460446D71A8C41A04203D952
:100D10000120009020463A46C70F94184041624691
:100D2000D20F2243644664000494009CBE466400D3
:100D3000D71AA446044602978C417746002F01D16A
:100D4000A04204D96046401C8446029A2046C40F43
:100D5000A64694184041049A0546D20F22436446A1
:100D60006400D31A8D417146002901D1A84202D9ED
:100D700028461A46641C10430122002800D016435E
:100D800061020020079B891904465C410223002C64
:100D900002DB491813466441089DCE0A2D145D19E3
:100DA0004B056705E10A2C050D1908993E43C90753
:100DB0006940002B08D0934006D30022761C514195
:100DC000002B01D1760876001C4A002D43DB15422A
:100DD00041D0AA433FD030460BB0F0BD06180D46B7
:100DE0004D41174C7642AC411AD395181C465C41D4
:100DF000134A6D42A24113D3012252054C00D44242
:100E00000AD15C00D4420BD04B4002D59202114370
:100E1000E2E749004908DFE75940C90FC90718E070
:100E200000200849D8E7054801420DD10342F7D018
:100E3000F2E700000000FF078D7500000000F07F62
:100E40000000E0FF0000F87F114859400143C01244
:100E500041400020C0E70123089A9B069A4205DC26
:100E6000032252078918C90FC907B5E7052252079F
:100E70008918074A1143D2125140ADE770B51546A3
:100E80001C4602460B4628462146FFF7DFFD70BD93
:100E9000FFFFFF7F0346CA02400D10B510430A153D
:100EA00004D00124E4072043002A05DB0A4CA21ADF
:100EB00004D4D040FF2A00DD002010BD4A00002BE2
:100EC00001D0012000E00020101801225205D0427C
:100ED000F2D8C817C04310BD1E040000F0B58B4CFB
:100EE0000F09254689B0BD437BD01D092646AE4378
:100EF000FAD00E465E402740F60F3E43254071D0A3
:100F000024012142FBD0FF24AD19A4042D1B03951D
:100F100001252D05DB02DB0AC9022B43C90A29433F
:100F20001E010901040F130F050121431701880B4E
:100F3000820391432D098C46A90B1E438A039543D6
:100F4000B30B9A0396433F09BA0B9403A743029647
:100F50002E467E430497B6464E19D7190C46019685
:100F6000544305977E43371B7646BF1B3601B64672
:100F7000BE0B361900967646BC043719009C01D387
:100F8000641C00946400002F01D001263443029EAB
:100F9000049F754366467E430496760034196E00BE
:100FA00034190094029C019E1C196643751BAE46C1
:100FB000069465464519059C05956C43594375464D
:100FC0000891691A0191049E01465143A41B0491A2
:100FD000611A009C0791E10605D0610901221143C5
:100FE00002E072E06EE06109089D00272C0A2D06E0
:100FF0006918049D7C412A0A2D066918019D6241E9
:10100000AC0DAD026D185441079A910D920255191D
:101010006141029A644658435443069B059A5A43D9
:10102000121A131B9A0E9B015B187A41010B0005E3
:10103000C3185141220A200644195A419A4200D24B
:10104000491C01204002814203D315230226F643A6
:1010500002E014230326F6432020C51AA9401746B0
:10106000AF40DA400A4320460399D8400914731868
:1010700019055118039A3843D2075140AC4009D0A2
:101080000122944006D30022401C5141002C01D182
:10109000400840001E4A934212D301220398920650
:1010A000904207DB0520400709181A480143C01287
:1010B000414004E0032040070818C10FC907002081
:1010C00009B0F0BD0020F107FAE705180C464C41C5
:1010D00011486D42A04115D394181A465A410E4842
:1010E000644290410ED301204A004005824209D358
:1010F0005A00824206D35940C90F084AC907002046
:101100001143DDE700200649DAE700000000FF0791
:10111000FE070000FFFFFF7F0000E0FF0000F07F00
:101120000000F87F0121C9050123411842001B0678
:10113000D3185B0E0AD0C1100722D20689184007C7
:101140005242D14201D5520089187047090208D590
:101150000146002A03D0C10FC9070020704710467E
:101160007047420202D0002002497047072109055A
:101170000143F4E70000F87F0102C21504D0012307
:10118000DB071943002A0ADB9E239A1A02D4084679
:10119000D0407047FF2241001206914201D9002041
:1011A0007047C017C04370471F22030C02D10F22A3
:1011B00000041CD0030E01D10002083A030F01D134
:1011C0000001121F830F01D18000921E002801DB55
:1011D0004000521ED2055118021251181922904097
:1011E00004D3491C002801D149084900084670472A
:1011F000C10FC90700D04042012292071143D3E733
:1012000001218907D0E7000000487047BC35002065
:10121000004870479C35002070477546FFF7F8FF7F
:10122000AE46050069465346C008C000854618B062
:1012300020B5FFF701F860BC00274908B646002634
:10124000C0C5C0C5C0C5C0C5C0C5C0C5C0C5C0C576
:10125000403D49008D46704710B50446C046C04623
:101260002046FEF781FF10BD01491820ABBEFEE706
:101270002600020010B5112000F044F810BD000057
:1012800010B501221146094800F0D6FE0A2000F0F0
:1012900003FDFF20F53000F049F8002800D010BD14
:1012A00000F006F8FFF7E6FF00BFF8E7000800507F
:1012B0001CB5002101910091012201A90A2004F02E
:1012C0007BF9002804D001200D490875801E1CBD43
:1012D000012269460B2004F06FF9002804D0012098
:1012E00007490875801EF2E768460079044948738B
:1012F0006846007888730020087500BFE7E70000A3
:10130000040D002038B50446684604702004010E20
:101310006846417002226946002004F05EF9002808
:1013200002D00020C04338BD0020FCE738B5044699
:1013300000F088FE054614E0002000900122694676
:101340000A2004F039F9002807D168460078802186
:101350000840002801D0002038BD0A2000F09CFC85
:1013600000BF00F06FFE401BA042E5D30020C04349
:10137000F2E7000010B507480068002802D00548D1
:1013800000F064FB04480068002802D0024800F026
:101390005DFB10BDC00700209808002010B507486D
:1013A0000068002802D0054800F050FB044800689F
:1013B000002802D0024800F049FB10BD08080020B8
:1013C0005008002030B51C25446C2C400125A54058
:1013D000046C6560046863608468102C04D1046840
:1013E000A2600468E16003E00468A1600468E26050
:1013F00030BD000030B503460C460A48834204D392
:101400009000C018084DA84201D9012030BD00212C
:1014100004E0880018588D006051491C9142F8D3AF
:101420000020F3E700000808FF170808F8B5054694
:101430000E461746002000901C48854208D3B8008D
:1014400040191B49884203D8A807800F002801D003
:101450000120F8BD72B600F08BFC00241EE0A10054
:10146000481900F02FFC00900098002800D017E0E9
:10147000A0003258A0004119022000F043FC009067
:101480000098002800D00BE0A0002858A100715857
:10149000884202D00120009002E0641CBC42DED3EE
:1014A00000BF00F025FC62B60098D2E700000808F3
:1014B000FF17080810B5202000F0A4FCFF20013021
:1014C00000F0A0FC0120000300F09CFC0120400380
:1014D00000F098FC10BD72B600BFFEE7002039494D
:1014E0008969FF2201321140914208D13649496988
:1014F00002221143344A5161FF210131084331492D
:101500008969012252021140914208D12E4949694C
:10151000012211432C4A5161012149020843294902
:101520008969012292021140914208D126494969F4
:1015300008221143244A51610121890208432149AB
:1015400089690122D2021140914208D11E4949699C
:10155000042211431C4A51610121C902084319495F
:101560008969012252031140914208D11649496903
:1015700010221143144A51610121490308431149C2
:101580008969012252041140914207D10E494969EB
:10159000202211430C4A51612021084309498969DD
:1015A000012212041140914208D1074949694022A1
:1015B0001143054A51610121090408430149886129
:1015C0007047000000200240B00E002070B50446B5
:1015D00000F038FD05460BE0601C002808D0002C08
:1015E00004D000F02FFD401BA04201D9032070BDA4
:1015F0001F488069C007C00F0028EDD11C488069D2
:1016000002210840022801D11949886118488069DF
:10161000FF2101310840884223D0154880694900E4
:10162000084088421DD0124880694900084088421D
:1016300017D00F48806949000840884211D00C48F3
:1016400080698900084088420BD0094880690901F7
:101650000840884205D00648806949100840884201
:1016600003D1FFF73BFF0120C1E70020BFE70000E7
:101670000020024000B585B014216846FEF706FF41
:101680001048009003200190002002906946052038
:10169000000700F0C7FB0C480090032001900020D9
:1016A00002906946094800F0BDFBFE20009003202F
:1016B0000190002002906946054800F0B3FB05B098
:1016C00000BD0000E118000001FC00000004005013
:1016D0000008005000B587B0142102A8FEF7D6FE1E
:1016E00000BF7A48C06A012108437849C8620846A9
:1016F000C06AC007C00F019000BF00BF00BF08460E
:10170000C06A022108437149C8620846C06A0221C2
:101710000840019000BF00BF00BF6C48C06A0421B0
:1017200008436A49C8620846C06A0421084001901B
:1017300000BF00BF480302900120039000200490E6
:101740000120059002A90520000700F06BFB042092
:10175000029001200390002004900120059002A92E
:101760005B4800F05FFB01204002029001200390E3
:10177000002004900120059002A9554800F052FB7A
:101780001020029001200390002004900120059079
:1017900002A90520000700F045FB0220029001206D
:1017A0000390002004900120059002A9484800F011
:1017B00039FB012040020290012003900020049098
:1017C0000120059002A9434800F02CFBFF200130C6
:1017D000029001200390002004900120059002A9AE
:1017E0003C4800F01FFBFF200130029011200390C5
:1017F000002004900120059002A90520000700F0B8
:1018000011FB02200290012003900020049001208F
:10181000059002A90520000700F004FB01200290BA
:101820000390002004900120059002A9294800F0AF
:10183000F9FA202002902120000403900020049057
:1018400002A9234800F0EEFAFF2001300290112097
:10185000000403900020049002A91D4800F0E2FA61
:101860000120400302901120000403900020049006
:1018700002A9184800F0D6FA0120000302902120A6
:10188000000403900020049002A9124800F0CAFA54
:10189000002211490520000700F0CEFB00220F496D
:1018A0000B4800F0C9FB00220C49FB31094800F04D
:1018B000C3FB00220121072000F0C4FE072000F036
:1018C000B3FEFFF7D7FE07B000BD000000100240D6
:1018D00000040050000800501281000006020000C1
:1018E000F0B58DB0182107A8FEF7D0FD182101A88A
:1018F000FEF7CCFD00240027264804F055FF0746DC
:10190000002F01D10DB0F0BD152F01DD152000E035
:1019100038460646324607A91E4804F08CFF0025CB
:101920002EE007A8405D0A2828D1681C84B2224610
:1019300001A9184804F09DFF002C06DD601E01A9D6
:10194000085C0A2801D1601E84B2002C06DD601EEE
:1019500001A9085C0D2801D1601E84B2002001A9F4
:101960000855002C09DD68460079432805D101A8F7
:1019700004F0F0F8074804F020FFC3E7681C85B2C4
:10198000B542CEDB152E02D1024804F01DFF00BF88
:10199000B8E7000000020020014600222520405C3C
:1019A000022808D00420C86300BF00232420435429
:1019B00000BF01207047086800680E2398430B6839
:1019C000186008680068400840000B6818601C2315
:1019D000486C184001238340086C43600123252094
:1019E000435400BF00232420435400BF1046E1E7C6
:1019F00070B5044600252520005D022803D0042090
:101A0000E063012520E0206800680E2188432168FA
:101A100008602068006840084000216808601C21B8
:101A2000606C084001218140206C4160012125202B
:101A3000015500BF00212420015500BFA06B0028E4
:101A400002D02046A16B8847284670BD70B5044679
:101A5000206C0568206806681C20616C0140042029
:101A60008840284000281DD004203040002819D08C
:101A70002068006820210840002805D120680068FF
:101A800004218843216808601C21606C08400421FF
:101A90008140206C4160206B00285AD02046216B89
:101AA000884756E01C20616C014002208840284095
:101AB000002825D002203040002821D0206800686E
:101AC00020210840002808D1206800680A218843A6
:101AD000216808600121252001551C21606C084007
:101AE00002218140206C416000BF0021242001556B
:101AF00000BFE06A00282CD02046E16A884728E031
:101B00001C20616C0140082088402840002820D01B
:101B10000820304000281CD0206800680E2188432F
:101B2000216808601C21606C084001218140206C04
:101B300041600120E06301212520015500BF002103
:101B40002420015500BF606B002802D02046616B45
:101B5000884770BD70B50446002C01D1012070BDCE
:101B6000244A2168881A1421FEF7D6FC800060649C
:101B70002048083820640221252001552068056886
:101B80001D480540E168A068084321690843616970
:101B90000843A1690843E1690843216A08430543F2
:101BA0002068056001218903A068884217D0114888
:101BB0007830806A1C22616C11400F228A40904369
:101BC0000C49783188621C22616C11406068884041
:101BD00008497831896A08430649783188620020CB
:101BE000E06301212520015500212420015500201A
:101BF000B5E70000080002400F80FFFFF8B504467B
:101C00000D4616461F460020009000BF2420005DB0
:101C1000012801D10220F8BD01212420015500BF77
:101C20002520005D01282DD102212520015500200D
:101C3000E0632068006840084000216808603B4677
:101C4000324629462046FFF7BDFB206B002806D010
:101C5000206800680E210843216808600BE02068B6
:101C600000680421884321680860206800680A2110
:101C70000843216808602068006801210843216842
:101C8000086006E000BF00212420015500BF0220AB
:101C900000900098BFE7000070B5044600F0D2F94C
:101CA00006462546681C002802D0054800782D18F5
:101CB00000BF00F0C7F9801BA842FAD370BD000036
:101CC0004000002070B5044600250748FFF77EFC61
:101CD0000546002D06D10549486120600248FFF7FE
:101CE00075FC0546284670BD50C30000B00E0020AC
:101CF00003484068012108430149486000207047BB
:101D000000200240F8B504460D46164600BF1648AE
:101D1000007C012801D10220F8BD0120124908747D
:101D200000BF1248FFF752FC0746002F14D10E499E
:101D30004861022C01D12E6008E0012C01D12E80D7
:101D400004E0002C01D12E7000E00127002F03D108
:101D50000648FFF73BFC074600BF00200249087415
:101D600000BF3846D8E70000B00E002050C3000086
:101D70000F484068C007C00F002816D000BFEFF31F
:101D80001080014600BF72B60A48094AD0600A486E
:101D9000D06000BF81F3108800BF10464068C007C4
:101DA000C00F002801D0012070470020FCE7000090
:101DB00000200240EFCDAB890504030220280CD09F
:101DC000C11FF93900290CD00F221202891A10D034
:101DD00001221203891A10D107E00121084AD170AB
:101DE0000CE00121064A117008E00121044A9170BB
:101DF00004E00121024A117100E000BF00BF7047FA
:101E00001400002010B50446054840692040002811
:101E100004D0034844612046FFF7D0FF10BD000006
:101E20000004014070B502460B460021002400204A
:101E3000E1E001268E401D6835402C46002C79D00B
:101E40001D79AD07AD0F012D04D01D79AD07AD0F84
:101E5000022D18D190684E000325B5400646AE43CA
:101E600030464E00DD68B54028439060506801253B
:101E70008D400646AE43304610265D6835402D093C
:101E80008D40284350601D79AD07AD0F032D0BD059
:101E9000D0684E000325B5400646AE4330464E009E
:101EA0009D68B5402843D0601D79AD07AD0F022D68
:101EB00015D1CD08AE0015462035A8594D07EE0EB8
:101EC0000F25B5400646AE4330464E07F60E1D6957
:101ED000B5402843CD08AD00164620367051106835
:101EE0004E000325B5400646AE4330461D79AD078A
:101EF000AD0F4E00B54028431060032636045D68E0
:101F00003540002D76D03F4D6D6B012635433D4E5B
:101F100075633D4D8E08B600A8598D072E0F0F250D
:101F2000B5400646AE43304605252D07AA4202D1EC
:101F300000251AE05EE0354DAA4201D1012514E0EA
:101F4000334DAA4201D102250FE0324DAA4201D100
:101F500003250AE0304DAA4201D1042505E02F4DAA
:101F6000AA4201D1052500E006258E07360FB540AF
:101F70002843254D8E08B600A851294DA86805466E
:101F8000A5432846012636055D683540002D02D060
:101F9000054625432846224DA860E8680546A54326
:101FA0002846012676055D683540002D02D005469D
:101FB000254328461A4DE86068680546A54328462B
:101FC000012676045D683540002D02D00546254384
:101FD0002846134D686028680546A5432846012613
:101FE00036045D683540002D02D00546254328465D
:101FF0000B4D2860491C1D68CD40002D00D018E70E
:1020000070BD0000001002400800014000040050B4
:1020100000080050000C005000100050001C005040
:102020000004014010B5426913460B401B040C46E6
:1020300094432343836110BD002A01D0816100E0F5
:102040008162704701480068704700003800002036
:1020500002464120805C20282FD100BF4020805CB8
:10206000012801D10220704701234020835400BF82
:1020700024234120835410680068400840001368FE
:1020800018601068006801231B03984313681860E8
:10209000106800680843136818601068006801231E
:1020A00018431368186020234120835400BF002385
:1020B0004020835400BF0020D5E70220D3E710B5AD
:1020C00002460B464120805C20282ED100BF4020D4
:1020D000805C012801D1022010BD012440208454DD
:1020E00000BF242441208454106800684008400048
:1020F00014682060106801680F2424020846A04379
:10210000014618020143106801601068006801244C
:1021100020431468206020244120845400BF002400
:102120004020845400BF0020D6E70220D4E70000FE
:1021300010B50446002C01D1012010BD4120005DE6
:10214000002805D1002140200155204600F00EFA5C
:102150002421412001552068006840084000216882
:1021600008600F21090660688843216808612068BB
:1021700080680121C903884321688860E0680128DC
:1021800006D10121C903A06808432168886005E0E1
:1021900021218902A068084321688860E06802283C
:1021A00007D1206840680121C902084321684860BE
:1021B00006E0206840680121C90288432168486020
:1021C0002068406814490843216848602068C06856
:1021D0000121C90388432168C860616920690843F7
:1021E000A169090208432168C860216AE0690843BF
:1021F00021680860206800680121084321680860A0
:10220000002060642021412001550020206300212E
:1022100042200155002090E700800002FFB583B006
:1022200004460C9F0E9E4120005D20287ED1002F89
:1022300002D00D98002805D10120400260640120E1
:1022400007B0F0BD00BF4020005D012801D1022091
:10225000F6E701214020015500BFFFF7F3FE0546D8
:1022600019230122D1032046009502F07BF80028B3
:1022700001D00120E4E722214120015540214220E4
:1022800001550020606467620D98608500206063DE
:1022900000960195204604A90EC901F0C5FF00284B
:1022A00006D000BF00214020015500BF0120C7E734
:1022B000608DFF280CD90120208541480090208D99
:1022C000C2B201231B062046049902F02DF80BE050
:1022D000608D20853A480090208DC2B201235B06B4
:1022E0002046049902F020F800BF33460022042162
:1022F0002046009502F036F8002801D001209FE723
:102300002068406A616A0870606A401C6062208DC3
:10231000401E2085608D401E6085608D00282BD07A
:10232000208D002828D13346002200E045E080219E
:102330002046009502F016F8002801D001207FE722
:10234000608DFF280CD90120208500200090208D71
:10235000C2B201231B062046049901F0E5FF0BE001
:10236000608D208500200090208DC2B201235B0685
:102370002046049901F0D8FF608D0028B5D12A4687
:102380003146204602F02DF8002801D0012057E701
:1023900020202168C861206840680A4908402168F7
:1023A000486020214120015500214220015500BFF5
:1023B0004020015500BF002042E7022040E7000016
:1023C0000024008000E800FEFFB583B004460C9FA7
:1023D0000E9E4120005D20287ED1002F02D00D9856
:1023E000002805D1012040026064012007B0F0BD43
:1023F00000BF4020005D012801D10220F6E7012145
:102400004020015500BFFFF71DFE0546192301229C
:10241000D1032046009501F0A5FF002801D001203E
:10242000E4E72121412001554021422001550020AF
:10243000606467620D986085002060630096019576
:10244000204604A90EC901F02FFF002806D000BFC6
:1024500000214020015500BF0120C7E7608DFF2803
:102460000CD9FF20208500200090208DC2B20123CE
:102470001B062046049901F057FF0BE0608D208574
:1024800000200090208DC2B201235B0620460499F3
:1024900001F04AFF00BF2A463146204601F0D4FF32
:1024A000002801D00120A1E7606A007821688862D5
:1024B000606A401C6062608D401E6085208D401EF9
:1024C0002085608D00282BD0208D002828D1334610
:1024D00000228021204600E043E0009501F042FF09
:1024E000002801D0012081E7608DFF280CD9FF2052
:1024F000208500200090208DC2B201231B062046BB
:10250000049901F011FF0BE0608D20850020009000
:10251000208DC2B201235B062046049901F004FF1E
:10252000608D0028B7D12A463146204601F059FF78
:10253000002801D0012059E720202168C8612068C7
:102540004068094908402168486020214120015520
:1025500000214220015500BF4020015500BF00204E
:1025600044E7022042E7000000E800FE7047000058
:10257000034800680349097840180149086070471A
:10258000380000204000002010B5002408480068F2
:102590004021084306490860032000F00BF800289A
:1025A00001D0012401E000F02FF8204610BD00000A
:1025B0000020024070B50446104801787D20C0001C
:1025C000FDF7AAFF064631460D480068FDF7A4FF57
:1025D000054600F001FF002801D0012070BD042C49
:1025E00007D200222146501E00F02CF80548046056
:1025F00001E00120F2E70020F0E7000040000020A9
:10260000240000203C0000200648406B01210843C4
:10261000044948630846806B0904084301498863FC
:1026200070470000001002400146002905DBCB0680
:10263000DB0E01229A40024B1A6000BF7047000077
:1026400000E100E070B504460D46164629462046D6
:1026500002F004FF70BD000003480068FF21013153
:10266000084301490860704700700040F8B504460F
:10267000002720212068084020287BD120680840BE
:10268000202800D100BF8B48806B0121090708403A
:10269000002805D18748806B084386498863012755
:1026A00085480068FF2101310840002816D1824882
:1026B0000068084380490860FFF7C4FC064606E04E
:1026C000FFF7C0FC801B642801D90320F8BD7A48BD
:1026D0000068FF21013108400028F1D075480568E5
:1026E000032109050D4060680840A8420DD009117A
:1026F00060680840884208D16E480068012149049A
:102700000840884201D10120E0E76A484030006972
:102710000321090408400546002D3DD060680840AB
:10272000A84239D0202120680840202834D16148AF
:102730004030006903210904884305465D48403064
:1027400000690121C90408435A494031086108461B
:1027500000690121C904884356494031086108468F
:102760000561801528408915884215D1FFF76AFC5C
:10277000064608E03DE0FFF765FC801B4F498842B4
:1027800001D90320A2E74B484030006901214902EA
:102790000840400A0028EED0202120680840202868
:1027A0001FD100BF00BF03210904606808408842B0
:1027B0000AD1404800680901884303221205616874
:1027C000114008433B49086000BF3A484030006967
:1027D0000322120461681140084336494031086100
:1027E00000BF012F05D13348806B39078843314939
:1027F00088632078C007C00F002809D02D484030DA
:10280000C06880088000A16808432A494031C86038
:10281000022120680840022809D126484030C068BB
:102820000C218843E168084322494031C8600421F3
:102830002068084004280AD11E484030C06803219F
:1028400089028843216908431A494031C860082138
:102850002068084008280AD116484030C068032183
:10286000090388436169084312494031C860FF2168
:1028700001312068084088420AD10E484030C068C3
:10288000032109048843A16908430A494031C8600B
:1028900080212068084080280AD106484030C0685E
:1028A000032189048843E169084302494031C86033
:1028B00000200BE700100240007000408813000069
:1028C000F8B504460E46002C01D10120F8BD83481E
:1028D0000068C007C00FB04218D2804800684008A6
:1028E000400030437D490860FFF7ACFB054607E038
:1028F000FFF7A8FB401B7A49884201D90320E5E78E
:1029000076480068C007C00FB042F1D102212068AC
:102910000840022807D17348C068F0218843A168A5
:1029200008437049C8602078C007C00F00284CD009
:102930006068022809D16B480068012149040840F9
:10294000400C002824D10120C0E76068032809D189
:1029500064480068012149060840400E002817D14C
:102960000120B3E76068012808D15E4800680421AF
:102970000840800800280BD10120A7E759480068CB
:10298000012149020840400A002801D101209DE7A9
:102990005448C06880088000616808435149C86095
:1029A000FFF750FB0546606802280FD107E0FFF7EC
:1029B00049FB401B4A49884201D9032086E7494820
:1029C000C0680C2108400828F1D134E06068032871
:1029D0000FD107E0FFF736FB401B4149884201D980
:1029E000032073E73F48C0680C2108400C28F1D150
:1029F00021E0606801280FD107E0FFF723FB401BAF
:102A00003749884201D9032060E73648C0680C2165
:102A100008400428F1D10EE007E0FFF713FB401B4C
:102A20002F49884201D9032050E72E48C0680C2165
:102A300008400028F1D129480068C007C00FB04203
:102A400018D92648006840084000304323490860F0
:102A5000FFF7F8FA054607E0FFF7F4FA401B2049B4
:102A6000884201D9032031E71C480068C007C00F25
:102A7000B042F1D1042120680840042808D1194847
:102A8000C068072109028843E16808431549C86006
:102A9000082120680840082809D11248C068072189
:102AA000C90288432169C90008430E49C86000F083
:102AB0004BF80C49C968F022114009090A4A515CD7
:102AC000C8400A4908600A480068FFF773FD0746D6
:102AD000002F01D03846F9E60020F7E6002002403A
:102AE0008813000000100240248000082400002009
:102AF0003C000020014800687047000024000020CE
:102B000000B5FFF7F7FF0549C96807221202114017
:102B1000090A034A515CC84000BD00000010024091
:102B20003480000800B5FFF7E5FF0549C9680722B2
:102B3000D2021140C90A034A515CC84000BD0000DE
:102B40000010024034800008FEB52E48C7680C20F3
:102B50003840002845D0042804D008280CD00C2880
:102B60003ED10BE02748006810210840002801D022
:102B7000254C00E0254C41E0254C3FE00F2080042F
:102B80003840800C23490E5C032080053840800DBE
:102B9000401C01901B48C06801210904084000281E
:102BA00007D01B49714308460199FDF7B5FC05465E
:102BB00014E01448006810210840002807D012498A
:102BC000714308460199FDF7A7FC054606E00F4949
:102BD000714308460199FDF79FFC05462C460DE020
:102BE00000BF08484068072149030840400B009097
:102BF0000098401C01218140CC0300BF00BF20464B
:102C0000FEBD00000010024000093D000024F40059
:102C100000127A003C800008FEB50446002C01D169
:102C20000120FEBDFB48C7680C210F40C068012190
:102C30000904084001902078C007C00F002872D016
:102C4000082F04D00C2F0FD1019888420CD1F148E5
:102C50000068012149040840400C002863D06068E6
:102C6000002860D10120DCE700BF01210904606871
:102C7000884205D1E74800680843E649086027E034
:102C800005210904606888420ED1E24800680121EC
:102C900089040843DF4908600846006801210904E7
:102CA0000843DC49086013E0DA48006801210904A0
:102CB0008843D84908600846006801210904084093
:102CC000009000BFD348006889008843D14908605C
:102CD00000BF6068002813D0FFF7B4F9054606E08E
:102CE000FFF7B0F9401B642801D9032099E7C948D0
:102CF0000068012149040840400C0028F0D012E08F
:102D0000FFF7A0F9054606E0FFF79CF9401B642891
:102D100001D9032085E7BF48006801214904084024
:102D2000400C0028F0D102212068084002286CD114
:102D3000E66820203040002809D0B64800682021ED
:102D40000843B44908602021304688430646042FD2
:102D500004D00C2F34D10198002831D1AD4800683F
:102D6000042108408008002803D0002E01D1012052
:102D700057E7A84840681F210902884321690902D2
:102D80000843A44948600846006809218843304345
:102D9000A0490860FFF7D8FE9E49C968F02211409B
:102DA00009099D4A515CC8409C4908609C480068DC
:102DB000FFF700FC0290029800283FD0029830E70D
:102DC000002E23D09348006809218843304391495D
:102DD0000860FFF737F9054606E0FFF733F9401BB7
:102DE000022801D903201CE78A4800680421084012
:102DF00080080028F1D0874840681F2109028843D5
:102E00002169090208438349486017E08148006846
:102E1000400840007F490860FFF714F9054606E0C6
:102E2000FFF710F9401B022801D90320F9E6794881
:102E300000680421084080080028F1D11021206892
:102E40000840102868D1002F37D172480068490126
:102E50000840400A002804D0A069002801D10120C0
:102E6000DFE66C484068072149038843216A08432C
:102E700068494860084640680002000A217F090648
:102E8000084364494860206A400B401C012181408E
:102E9000C8036049C968F022114009095E4A515CC3
:102EA000C8405E4908605E480068FFF783FB0290F7
:102EB000029800284BD00298B3E6A06900282CD0D5
:102EC00054480068FF210131084352490860FFF768
:102ED000B9F8054606E0FFF7B5F8401B022801D90E
:102EE00003209EE64B480068012149020840400A41
:102EF0000028F0D047484068072149038843216AE9
:102F0000084344494860084640680002000A217F9F
:102F1000090608433F49486019E03E480068FF2120
:102F2000013188433B490860FFF78CF8054606E00D
:102F3000FFF788F8401B022801D9032071E63548C5
:102F40000068012149020840400A0028F0D1082108
:102F500020680840082839D1606900281BD02D4816
:102F600040300069012108432A4940310861FFF7D8
:102F700069F8054606E0FFF765F8401B022801D90D
:102F800003204EE6234840300069022108404008F3
:102F90000028F0D01AE01F48403000694008400087
:102FA0001C4940310861FFF74DF8054606E0FFF780
:102FB00049F8401B022801D9032032E61548403069
:102FC00000690221084040080028F0D1042120684F
:102FD000084004287BD1002000900E48806B8906B1
:102FE0000840002806D10B48806B084309498863D4
:102FF000012000900B480068FF21013108400028A3
:1030000020D108480068084306490860FFF71AF80D
:10301000054610E000100240248000082400002033
:103020003C00002000700040FFF70CF8401B6428B3
:1030300001D90320F5E587480068FF2101310840E8
:103040000028F1D000BFFF210131A068884205D1DE
:103050008148006908438049086130E0A068002881
:103060000DD17D480069FF21013188437A4908610B
:103070000846006909158843774908611FE0052162
:103080000902A06888420DD17348006901218902B4
:1030900008437149086108460069891508436E496B
:1030A00008610CE06C480069FF21013188436A49DE
:1030B000086108460069091588436749086100BF2F
:1030C000A068002815D0FEF7BDFF054608E031E0F6
:1030D000FEF7B8FF401B6149884201D90320A0E5F3
:1030E0005D480069012149020840400A0028EFD0EC
:1030F00013E0FEF7A7FF054607E0FEF7A3FF401B1E
:103100005649884201D903208BE5534800690121C3
:1031100049020840400A0028EFD10098012808D150
:103120004D484038806B0121090788434A4940399E
:10313000886300BF606A00284CD00C2F69D0606A99
:10314000022848D1444840380068012109068843D4
:10315000414940390860FEF775FF054606E0FEF775
:1031600071FF401B022801D903205AE53A48403834
:103170000068012149060840400E0028EFD1E16AAD
:10318000A06A0843216B084333494039C968FD22CE
:1031900012049143084330494039C860084600682A
:1031A0000121090608432C4940390860FEF74AFF0F
:1031B000054606E0FEF746FF401B022801D9032022
:1031C0002FE5254840380068012149060840400E97
:1031D0000028EFD03CE02048403800680121090673
:1031E00088431D4940390860FEF72CFF054606E07C
:1031F000FEF728FF401B022801D9032011E51648DD
:1032000040380068012149060840400E0028EFD1EF
:103210001EE0606A012800D103E50F484038C0680D
:1032200001900121090401980840A16A88420DD14A
:103230000F21890401980840E16A884206D10321E0
:10324000890501980840216B884201D00120E8E4FB
:103250000020E6E4007000404010024088130000A7
:103260000449096804221143024A11600121024AFB
:1032700051707047007000401400002010B50446E3
:10328000012000050F4948612068806801218903F9
:103290000840800B002811D02068C0680911084040
:1032A000800A00280AD02068C068802108400649AA
:1032B00008432168C8602046FFF7D2FF0121212082
:1032C000015510BD000401407FFBFFFF70B50446AF
:1032D0000125002C01D1012070BD2120005D0028B6
:1032E00005D1002120200155204600F055F802218B
:1032F000212001552068C0681021084000090028DD
:1033000040D100BFCA20216848625320216848622A
:1033100000BF204601F004F90546002D1DD12068AC
:1033200080681C49084021688860216960680843FA
:10333000A169084321688968084321688860216879
:10334000E068086120680069218909040843216850
:103350000861204601F00DF90546002D0DD12068C9
:10336000C06C800880002168C8646169E069084316
:103370002168C96C08432168C86400BFFF20216828
:10338000486200E00025002D02D1012121200155D5
:103390002846A1E7BFFF8FFF7047000070B50446C5
:1033A00000250C482168C860FEF74CFE054608E081
:1033B000FEF748FE401B7D21C900884201D9032049
:1033C00070BD2068C068202108400028F0D000208F
:1033D000F6E700005FFF010070B504462546681E51
:1033E0000949884201D901200CE0681E074948615B
:1033F0000321081F02F032F80020044988610720E9
:103400000861002070BD0000FFFFFF0000E000E049
:1034100030B502460B4600BF3820805C012801D140
:10342000022030BD01253820855400BF02253920F7
:103430008554106844681068816870252046A84348
:10344000044618680443106844600125AD071068FD
:10345000A8420BD00E4D1068A84207D00D4D106841
:10346000A84203D00C4D1068A84207D18025084619
:10347000A84301465868014310688160012539203E
:10348000855400BF00253820855400BF0020C8E7C0
:1034900000040040000801400014014010B504463B
:1034A000002C01D1012010BD3920005D002805D17C
:1034B000002138200155204600F018F8022139205B
:1034C0000155211D206801F0DDF901213E20015543
:1034D00000BF3A2001553B2001553C2001553D20BD
:1034E000015500BF392001550020DCE7704700007E
:1034F00001463920405C012801D001207047022399
:10350000392043540868C068012318430B68D86009
:1035100001239B07086898420BD0104B086898421B
:1035200007D00F4B0868984203D00E4B08689842AA
:103530000CD1086880684207520F062A0CD0086830
:103540000068012318430B68186005E008680068EC
:10355000012318430B6818600020CFE700040040E7
:103560000008014000140140F8B504460D46002053
:10357000009000BF3820005D012801D10220F8BD75
:1035800001213820015500BF022139200155206852
:1035900086687721304688430646FF210902304677
:1035A00088430646206886602868502834D00CDCA2
:1035B000202851D004DC00284CD0102852D14AE0F9
:1035C00030284AD040284DD13AE060282ED07028CB
:1035D00007D001210903401A02D0401A42D10DE060
:1035E00043E0EB686A68A968206801F08DF92068FB
:1035F0008668772006432068866036E0EB686A6854
:10360000A968206801F080F9206880680121890399
:1036100008432168886028E0EA686968206801F04A
:103620008DF95021206801F07DF91EE0EA68696893
:10363000206801F09CF96021206801F073F914E022
:10364000EA686968206801F079F94021206801F092
:1036500069F90AE000BF00BF00BF2968206801F0D7
:1036600061F902E00120009000BF00BF0121392074
:10367000015500BF00213820015500BF00987EE7AA
:10368000704770B504462068C56820680669022046
:103690003040022819D12840022816D1401F216845
:1036A000086101202076206880698007800F00284B
:1036B00003D02046FFF7E4FF05E0204600F07EF847
:1036C000204600F07CF800202076042030400428BA
:1036D0001AD12840042817D1C0432168086102206C
:1036E000207620688069032109020840002803D061
:1036F0002046FFF7C5FF05E0204600F05FF82046B2
:1037000000F05DF80020207608203040082819D10C
:103710002840082816D1C04321680861042020767B
:103720002068C0698007800F002803D02046FFF77B
:10373000A7FF05E0204600F041F8204600F03FF8E2
:10374000002020761020304010281AD12840102860
:1037500017D1C04321680861082020762068C0691D
:10376000032109020840002803D02046FFF788FF04
:1037700005E0204600F022F8204600F020F8002066
:103780002076F007C00F00280AD0E807C00F0028F5
:1037900006D00120C04321680861204600F010F8DF
:1037A00040203040402808D12840402805D1C0435F
:1037B00021680861204600F004F870BD704770472A
:1037C00070477047F8B504460D46174680200059EB
:1037D000202839D1002D01D0002F01D10120F8BDC2
:1037E00001210903A068884208D12069002805D179
:1037F000E807C00F002801D00120F0E70120206673
:10380000002060663A462946204601F09BFC0646A9
:10381000002E17D1206E012813D1102021680862D4
:1038200000BF01F05DFE0090012001F062FE206803
:1038300000681021084321680860009801F059FED3
:1038400000E001263046CAE70220C8E738B5054641
:103850000C46002000907649286888422ED1754891
:10386000008884420BDD73480088201A82B27248B7
:10387000704B1B88C118714803F01EF815E06D48A5
:103880000088844211DA6B480088FF230133181A3C
:1038900082B26948674B1B88C118684803F00CF86E
:1038A00022466549654803F007F8624804800088AD
:1038B000FF2802DD00205F490880B7E060492868E2
:1038C000884237D15F48008884420BDD5D4800881C
:1038D000201A82B25C485B4B1B88C1185B4802F01F
:1038E000EBFF15E057480088844211DA55480088FC
:1038F000FF230133181A82B25348524B1B88C11858
:10390000524802F0D9FF22464F49504802F0D4FFF6
:103910004C4804800088FF2802DD002049490880C7
:1039200002204B49087000236A464A48006803F0A9
:10393000EEFC7BE04849286888423CD14748008833
:1039400084420BDD45480088201A82B24448434B2C
:103950001B88C118434802F0AFFF15E03F480088BC
:10396000844211DA3D480088FF230133181A82B2DD
:103970003B483A4B1B88C1183A4802F09DFF22464B
:103980003749384802F098FF34480088201A3649F1
:103990000860324804800088FF2802DD00202F499B
:1039A000088004202A49087000236A4629480068D4
:1039B00003F0ADFC3AE02D492868884236D12C4806
:1039C000008884420BDD2A480088201A82B22948E8
:1039D000274B1B88C118284802F06EFF15E02448C9
:1039E0000088844211DA22480088FF230133181A24
:1039F00082B220481E4B1B88C1181F4802F05CFF92
:103A000022461C491C4802F057FF194804800088D0
:103A1000FF2802DD00201649088005200C490870A7
:103A200000236A460B48006803F071FC38BD0000B3
:103A30000038014030000020E0080020FC00002099
:103A40000044004032000020E00900200002002075
:103A50002800002010000020004C0040340000200E
:103A6000E00A0020040300202C0000200050004049
:103A700036000020E00B0020080400207047000002
:103A8000274A016891420FD108210268116204217E
:103A9000026811620221026811620121026811624A
:103AA000002284210A503AE01E4A016891420FD157
:103AB0000821026811620421026811620221026871
:103AC0001162012102681162002284210A5026E05D
:103AD000154A016891420FD1082102681162042140
:103AE00002681162022102681162012102681162FA
:103AF000002284210A5012E00C4A016891420ED142
:103B00000821026811620421026811620221026820
:103B10001162012102681162002284210A5070475B
:103B20000038014000440040004C0040005000407C
:103B3000F0B585B004462068C5692068066820682D
:103B40008768F84828400390039800280FD1202068
:103B5000284000280BD020203040002807D0A06E3D
:103B6000002802D02046A16E884705B0F0BD03981A
:103B700000287DD0F807C00F002803D1EA48304064
:103B80000028F6D0E807C00F00280DD0FF20013034
:103B90003040002808D001202168086284200059A4
:103BA00001210843842108510220284000280CD01C
:103BB000F807C00F002808D002202168086284207E
:103BC000005904210843842108510420284000287A
:103BD0000CD0F807C00F002808D004202168086224
:103BE00084200059022108438421085108202840DC
:103BF000002810D020203040002803D1F807C00F43
:103C0000002808D008202168086284200059082173
:103C10000843842108510120C002284000280ED00A
:103C2000012080063040002809D00120C002216810
:103C300008628420005920210843842108518420EF
:103C40000059002854D020202840002809D02020E6
:103C50003040002805D0A06E002802D02046A16E7A
:103C6000884784200059029020688068402100E045
:103C70003FE00840402804D028210298084000284E
:103C800030D0204601F054F8206880684021084078
:103C9000402823D100BF01F020FC0190012001F059
:103CA00025FC20688068402188432168886001984D
:103CB00001F01CFC00BF606F00280BD09B48616FB7
:103CC0008863606FFDF794FE002811D0606F816BF0
:103CD00088470DE02046FFF7D3FE09E02046FFF7B6
:103CE000CFFE05E02046FFF7CBFE002184200151E6
:103CF0003BE7206E01287DD110202840002879D094
:103D0000102030400028FAD0102021680862206876
:103D100080684021084040286DD1606F006840688D
:103D200080B20190019800286BD05820015B019867
:103D3000814266DD5A2101980853606F006800686F
:103D40002021084000284CD100BF01F0C6FB0090A4
:103D5000012001F0CBFB20680068FF21013188437E
:103D600021680860009801F0C1FB00BF00BF01F0AE
:103D7000B4FB0090012001F0B9FB20688068400886
:103D8000400021688860009801F0B0FB00BF00BFD0
:103D900001F0A3FB0090012001F0A8FB20688068DF
:103DA0004021884321688860009801F09FFB00BF94
:103DB0002021802001510020206600BF01F08DFBF2
:103DC0000090012001F092FB2068006810218843D8
:103DD00021680860009801F089FB00BF606FFDF763
:103DE000DBFD022060665820025B5A20005B101A3F
:103DF00081B202E068E018E003E02046FFF726FD0C
:103E000012E05820015B019881420DD1606F00687B
:103E1000006820210840202806D102206066582032
:103E2000015B2046FFF712FD9FE65820015B5A20F8
:103E3000005B081A80B201905A20005B002842D033
:103E4000019800283FD000BF01F047FB00900120FF
:103E500001F04CFB20680068FF2121318843216874
:103E60000860009801F042FB00BF00BF01F035FB85
:103E70000090012001F03AFB206880684008400073
:103E800021688860009801F031FB00BF202180206C
:103E9000015100202066A06600BF01F01EFB0090CB
:103EA000012001F023FB206800681021884321686D
:103EB0000860009801F01AFB00BF022060662046EF
:103EC0000199FFF7C3FC50E60120000528400028B7
:103ED0000CD0012080053840002807D001200005C3
:103EE000216808622046FFF7C9FD3EE68020284091
:103EF00000280AD080203040002806D0E06E00283C
:103F000002D02046E16E88472FE640202840002856
:103F10000ED04020304000280AD0204600F048FF54
:103F200023E600000F08000020010004914B000868
:103F300000BF1AE610B50446002C01D1012010BDC7
:103F4000A069002800D000E000BFE06F002805D184
:103F5000002178200155204600F02BF82420E0674E
:103F6000206800684008400021680860606A0028F6
:103F700002D0204600F014FD204600F04BFF01283F
:103F800000D1DCE7206840680921C9028843216824
:103F90004860206880682A218843216888602068FA
:103FA00000680121084321680860204600F070FD88
:103FB000C5E7704770477047704700BFFEE70000D5
:103FC00000B587B0142102A8FCF760FA00BF2448AE
:103FD000C06A022108432249C8620846C06A022119
:103FE0000840019000BF00BF1D48806B09050843D1
:103FF0001B498863C0200290122003900020049087
:10400000032005900120069002A91648FDF70AFF3B
:104010001548164908601648486000211348816019
:104020000121C1600021016141618161C1610162C1
:10403000FEF77EF8002801D0FDF74DFA00210B486D
:10404000FEF706F8002801D0FDF745FA00210748E1
:10405000FEF735F8002801D0FDF73DFA07B000BDA6
:104060000010024000040050005400400C050020E5
:10407000583D500001688969022211404908002911
:1040800002D000210268916201688969C907C90FDD
:10409000012251405140002904D10168896911432E
:1040A0000268916170470000F7B584B004460E467F
:1040B0000020039020688769002506980290102050
:1040C0003840102854D12168C8613DE0701C002898
:1040D0003AD0FDF7B7FF0299401AB04201D8002E3E
:1040E00032D12068406801218903084001904220B4
:1040F000005D00902068806949000840C00B0028DE
:104100000ED04910019888420AD00098202807D084
:1041100020684068084321684860FDF793FF0290DB
:104120000AE0FDF78FFF0299401A192804D92020D0
:1041300005430120039006E02068806920210840A3
:1041400040090028EDD000BF206880692021084088
:104150004009002802D103980028B7D0039800280E
:1041600002D120202168C86104200543012003906A
:1041700020688769FF2001303840FF2101318842E3
:1041800006D10120054300022168C8610120039087
:1041900001208002384001218902884206D108208E
:1041A0000543C0012168C86101200390012040023D
:1041B000384001214902884206D10220054300020D
:1041C0002168C861012003900398002815D020467B
:1041D000FFF750FF2068406809490840216848609F
:1041E000606C284360642021412001550021422059
:1041F000015500BF4020015500BF039807B0F0BD36
:1042000000E800FEFEB504460D4616461F46642033
:10421000610001232A460197009602900148FDF7AC
:10422000FDFFFEBD0C050020FFB581B0044615461C
:104230001E460A9F1B48F2B20023009020460299B6
:1042400000F072F8394620460B9A00F0FDF800287D
:1042500002D0012005B0F0BD012E03D1E8B22168E3
:10426000886211E0FF200002284000122168886265
:10427000394620460B9A00F0E7F8002801D00120CB
:10428000E8E7E8B2216888620B983B4600224021AB
:104290000090204600F066F8002801D00120D9E700
:1042A0000020D7E700200080FFB581B00446154606
:1042B0001E460A9F1B48F2B2C30200902046029994
:1042C00000F032F8394620460B9A00F0BDF800287D
:1042D00002D0012005B0F0BD012E03D1E8B2216863
:1042E000886211E0FF2000022840001221688862E5
:1042F000394620460B9A00F0A7F8002801D001208B
:10430000E8E7E8B2216888620B983B4600228021EA
:104310000090204600F026F8002801D00120D9E7BF
:104320000020D7E700200080F8B5069C8D05AD0D74
:104330001604FF273F043E4035431D4325436D00CF
:104340006D08009505686E68650D0127BF023D4048
:10435000034F3D43AE43009D2E4305686E60F8BD9C
:10436000FF63FF03F8B504460D4617461E462CE0D2
:1043700031462046069AFFF797FE002801D001201B
:10438000F8BD701C002820D0FDF75CFE0699401A8D
:10439000B04201D8002E18D1206880692840A84278
:1043A00001D1012000E00020B8420ED1606C202134
:1043B000084360644120015500214220015500BF9F
:1043C0004020015500BF0120DAE7206880692840BD
:1043D000A84201D1012000E00020B842C8D000204E
:1043E000CEE770B504460D46164624E0324629460F
:1043F0002046FFF759FE002801D0012070BDFDF7CF
:1044000021FE801BA84201D8002D14D120688069AC
:1044100020210840400900280DD1606C08436064E9
:104420004120015500214220015500BF4020015587
:1044300000BF0120E2E72068806920210840400990
:104440000028D3D00020D9E770B504460D461646A3
:1044500028E0324629462046FFF726FE002801D0F4
:10446000012070BD681C00281CD0FDF7EBFD801BEF
:10447000A84201D8002D15D120688069022108408A
:10448000400800280ED1606C202108436064412060
:10449000015500214220015500BF4020015500BFB9
:1044A0000120DEE7206880690221084040080028DA
:1044B000CFD00020D5E70000FEB504460D461646D5
:1044C0001F466420610001232A460197009602904E
:1044D0000148FDF779FFFEBD0C05002070B50246CE
:1044E0000B460C48002112E0555C684000240BE0AC
:1044F000C507ED0F002D04D04510074E7540284626
:1045000000E04010651CECB2082CF1DB491C99421C
:10451000EAD370BDFFFF000001A0000000BFFEE76E
:1045200070B50446002600252068C0684021084078
:1045300000281CD12068C068802108432168C86019
:10454000FDF780FD06460AE0FDF77CFD801B7D211E
:10455000C900884203D90421212001550125206882
:10456000C06840210840002801D1012DECD1284627
:1045700070BD70B5044600252068C068802188435E
:104580002168C8602068806820210840002808D180
:104590002046FEF703FF002803D004212120015507
:1045A0000125284670BD000010B50248FEF766FEE2
:1045B00010BD0000E00C002010B512480069012178
:1045C000890408430F4908610F481049086000201A
:1045D00048607F210D488160FF21C1600021016199
:1045E00041618161C161FEF771FE002801D0FCF7D5
:1045F00072FF002203210220FEF724F80220FEF7BA
:1046000013F810BD4010024000280040E00C0020CC
:104610003EB500200190029000240090174802F05F
:10462000C3F8C4B2072C28DB24E0032269461348F0
:1046300002F001F96846007801280BD068464078FE
:10464000032807D068468078022803D00B4802F080
:10465000BBF80BE0072201A9084802F00AF901A8FB
:1046600001F0A6FA054802F0A8F805E0034802F0B8
:104670009BF8C4B2072CD8DA00BF3EBD0804002066
:104680007047000010B50122022105200007FDF748
:10469000D3FCFCF7F5FD0122D10305200007FDF74F
:1046A000CBFC012204210448FDF7C6FC0122510283
:1046B0000148FDF7C1FC10BD0004005010B50548CD
:1046C0000069FDF755FF03F0E1F8012801D002F081
:1046D000A1FC10BD00E000E000B59BB034210EA8A5
:1046E000FBF7D4FE142109A8FBF7D0FE202101A876
:1046F000FBF7CCFE2C4800680321C9028843012146
:10470000C902401828490860FDF7A6FF274800693C
:104710000121C904084325490861084600690121AF
:10472000C904884321490861084600690321C90278
:1047300088431E49086106200E90881510900120BC
:1047400011901020129002201790002118911991B9
:1047500081051A910EA8FEF75FFA002801D0FCF738
:10476000BAFE0F20099003200A9000200B900C90B5
:104770000D90002109A8FEF7A3F8002801D0FCF74E
:10478000AAFE2B20019000200390049006900120A7
:104790000004029001A8FDF769FF002801D0FCF792
:1047A0009AFE1BB000BD00000070004040100240A7
:1047B0007047000008B50B48FEF763FF0A48006821
:1047C00000280ED00020009069460748006802F0DB
:1047D000FCFD0098002803D0012000070349486031
:1047E00000BF08BD600500200C00002000ED00E0C7
:1047F00000B587B0002003900490059006900190CA
:1048000002901C48806B022108431A4988631A48A9
:104810001A4908601A4848600021184881609F21A1
:10482000C160002101614161FEF738FE002801D01E
:10483000FCF751FE01200003039003A90F48FEF787
:1048400093FE002801D0FCF746FE00200190029064
:1048500001A90A48FEF7DCFD002801D0FCF73BFE69
:10486000002203211020FDF7EDFE1020FDF7DCFEF5
:1048700007B000BD001002400004004060050020A9
:104880000F27000010B5026801239B07984208D04B
:104890001A4B984205D01A4B984202D0194B9842B5
:1048A00005D170241346A3431A464B681A430123CB
:1048B0009B07984208D0114B984205D0104B984264
:1048C00002D0104B984206D1032424021346A3437E
:1048D0001A46CB681A4380241346A3430C6923432A
:1048E0001A468B68C3620B688362036804242343FF
:1048F000036001234361026010BD0000000400401A
:10490000000801400014014070B50C468168FF2684
:1049100036020D46B54329461D021543254329435A
:10492000816070BD10B50A46816870240B46A343B0
:104930001946072313431943816010BD70B50B4618
:104940001446026A056A6D086D0005628169F026E9
:104950000D46B5432946250129430A261546B54388
:104960002A4615461D432A468161026270BD70B514
:104970000B461446026A056A1026B5430562816932
:104980000F2636030D46B543294625032943A026A5
:104990001546B5432A461D012A438161026270BD56
:1049A0000822416A1140082907D1016849681203A9
:1049B0009143426B114302685160818CC907C90F52
:1049C000002908D001684968012252049143826A93
:1049D0001143026851600222416A1140022907D145
:1049E00001684968D2039143C26A11430268516069
:1049F0000422416A1140042907D101684968120460
:104A00009143026B1143026851601022416A1140C8
:104A1000102907D10168896812029143826B114302
:104A2000026891602022416A1140202907D1016863
:104A3000896812029143C26B11430268916040225F
:104A4000416A1140402915D1016849689203914398
:104A5000026C11430268516001221205016C9142FF
:104A600008D101684968032252059143426C114301
:104A7000026851608022416A1140802907D1016893
:104A8000496812039143826C114302685160704778
:104A9000F8B50446002184200151FDF7D3FA0546FC
:104AA0002068006808210840082823D137482B4691
:104AB000002289040090204600F0B2FB002819D0A3
:104AC00000BF00F00AFD0646012000F00FFD20683F
:104AD00000688021884321680860304600F006FDA8
:104AE00000BF2020E06700BF00217820015500BFF3
:104AF0000320F8BD2068006804210840042836D14E
:104B000022482B46002209050090204600F088FB31
:104B100000282CD000BF00F0E0FC0646012000F089
:104B2000E5FC20680068FF21213188432168086086
:104B3000304600F0DBFC00BF00BF00F0CEFC0646B4
:104B4000012000F0D3FC2068806840084000216804
:104B50008860304600F0CAFC00BF2021802001514F
:104B600000BF00217820015500BF0320C1E72020AD
:104B7000E06720218020015100202066606600BF90
:104B800000217820015500BF0020B2E7FFFFFF01A0
:104B900070B50446A56A00215A2041532846FEF705
:104BA0006FFF70BDF8B50546AC6AE66F8020075907
:104BB0002068806880210840802807D1212E05D1F7
:104BC000002152200153204600F00DF92068806832
:104BD00040210840402807D1222F05D100215A202A
:104BE0000153204600F0A4F8842000591021084306
:104BF000842108512046FEF743FFF8BD70B50546F5
:104C0000AC6A286800682021084000284DD10021A6
:104C10005A20015300BF00F060FC0646012000F05E
:104C200065FC20680068FF21013188432168086025
:104C3000304600F05BFC00BF00BF00F04EFC0646B3
:104C4000012000F053FC2068806840084000216883
:104C50008860304600F04AFC00BF00BF00F03DFC19
:104C60000646012000F042FC20688068402188430D
:104C700021688860304600F039FC00BF2021802088
:104C80000151206E012810D100BF00F026FC06461D
:104C9000012000F02BFC2068006810218843216867
:104CA0000860304600F022FC00BF00206066206EE5
:104CB000012815D100215A2001532868406886B286
:104CC0005820005BB04201DD5A2006535820025B99
:104CD0005A20005B101A81B22046FEF7B7FD02E0B1
:104CE0002046FFF767F970BD70B50546AC6A012034
:104CF0006066206E012817D15820005B41085A20B9
:104D000001532868406886B25820005BB04201DB3E
:104D10005A2006535820025B5A20005B101A81B2B9
:104D20002046FEF793FD02E02046FFF744F970BDF0
:104D300070B5044600BF00F0D0FB0546012000F02E
:104D4000D5FB20680068FF21213188432168086075
:104D5000284600F0CBFB00BF00BF00F0BEFB0546BD
:104D6000012000F0C3FB20688068400840002168F3
:104D70008860284600F0BAFB00BF206E012810D1E1
:104D800000BF00F0AAFB0546012000F0AFFB206841
:104D900000681021884321680860284600F0A6FBBF
:104DA00000BF20218020015100202066A06670BD38
:104DB00070B5044600BF00F090FB0546012000F0EE
:104DC00095FB2068006840218843216808602846D8
:104DD00000F08CFB00BF2020E0670020E06620464A
:104DE000FFF7EAF870BD70B5044600BF00F075FB30
:104DF0000546012000F07AFB20680068C021884346
:104E000021680860284600F071FB00BF2020E067A1
:104E100070BD0000F0B587B0044600200390BE4985
:104E20002068884200D100E000BF2169A0680843E3
:104E300061690843E1690843059020680068B74943
:104E400008400599084321680860206840680321EC
:104E500009038843E168084321684860A069059018
:104E6000AD492068884203D0206A0599084305901F
:104E7000206880680B21090288430599084321684E
:104E8000886000BFA6492068884217D1A548C0683D
:104E90008007800F002806D0012808D0022804D0FF
:104EA000032808D105E0012607E0022605E00426D4
:104EB00003E0082601E0102600BF47E09A49206879
:104EC000884217D19748C0680C210840002806D0B6
:104ED000042808D0082804D00C2808D105E00026B2
:104EE00007E0022605E0042603E0082601E010267C
:104EF00000BF2BE08D492068884201D1002625E0C3
:104F00008B492068884201D100261FE08249206831
:104F100088421AD18348C0680321890208400028CA
:104F200008D001218902401A08D0401A04D0401A42
:104F300008D105E0002607E0022605E0042603E08C
:104F4000082601E0102600BF00E0102600BF7249CD
:104F50002068884251D1002E06D0022E08D0042E9F
:104F600012D0082E17D113E0FDF7CAFD054616E052
:104F70006C4840380068102108400009002801D022
:104F80006C4D00E06C4D0AE0FDF7DEFD054606E0E5
:104F90000125ED0303E000250120039000BF00BFC1
:104FA000002D0AD0606841004018A84203D860680C
:104FB0000003A84202D201200390A7E0606802909B
:104FC0002846FF21013100F023FA626852080023CD
:104FD0008018594101910090029AFBF747F9074662
:104FE000032109028F4205D35448874202D8206822
:104FF000C7608BE00120039088E00121C903E069CC
:10500000884247D1330000F01BFA09060A0E211A24
:105010002121211E2100FDF773FD05461AE0FDF751
:1050200081FD054616E03F484038006810210840E1
:105030000009002801D03F4D00E03F4D0AE0FDF798
:1050400083FD054606E00125ED0303E00025012070
:10505000039000BF00BF002D58D06A0063685B0852
:10506000D0186168FBF758FA0746102F0FD3344861
:1050700087420CD832480F38384004903807400F28
:1050800004990843049004982168C8603EE0012018
:1050900003903BE0330000F0D3F909060A0E211A11
:1050A0002121211E2100FDF72BFD05461AE0FDF709
:1050B00039FD054616E01B484038006810210840BD
:1050C0000009002801D01B4D00E01B4D0AE0FDF750
:1050D0003BFD054606E00125ED0303E00025012028
:1050E000039000BF00BF002D10D061684A0850191E
:1050F000FBF712FA0746102F06D31148874203D850
:10510000B8B22168C86001E0012003900020A066C9
:10511000E066039807B0F0BD00480040F369FFEF78
:10512000003801404010024000440040004C004064
:105130000050004000093D000024F400FFFF0F0074
:10514000FFFF0000F8B504460E4615466665582078
:105150000553002184200151222180200151606FDC
:1051600000281DD02B48616FC8622B48616F08630F
:105170002A48616F48630020616F8863236819467D
:1051800024312B46626D606FFCF738FD002807D094
:105190001021842001512021802001510120F8BDDF
:1051A0002069002811D000BF00F097F907460120C0
:1051B00000F09CF920680068FF2101310843216854
:1051C0000860384600F092F900BF00BF00F085F992
:1051D0000746012000F08AF9206880680121084311
:1051E00021688860384600F081F900BF00BF00F0F8
:1051F00074F90746012000F079F9206880684021A1
:10520000084321688860384600F070F900BF00202C
:10521000C5E70000FD4B0008E94C0008A54B00085D
:10522000FFB581B004460D4617460A9E46E0701C45
:10523000002843D0FCF706FF0499401AB04201D879
:10524000002E02D1032005B0F0BD206800680421C3
:105250000840002832D0802D30D0402D2ED020683C
:10526000C06908210840C00800280FD00820216824
:1052700008622046FFF75CFD08218420015100BF31
:1052800000217820015500BF0120DCE72068C069BB
:105290000121C9020840C00A00280FD00846216831
:1052A00008622046FFF744FD20218420015100BF01
:1052B00000217820015500BF0320C4E72068C069A1
:1052C0002840A84201D1012000E00020B842AED021
:1052D0000020B8E710B50248FEF72AFC10BD000018
:1052E000A005002010B50248FEF722FC10BD00000A
:1052F0002806002010B507480068002802D005489D
:10530000FEF716FC04480068002802D00248FEF7A9
:105310000FFC10BDB00600203807002010B586B085
:105320000446142101A8FBF7B1F83448806B012131
:10533000C90408433149886300BF0846C06A042194
:1053400008432E49C8620846C06A042108400090FC
:1053500000BF00BF00BF2948006B01210843274957
:1053600008630846006BC007C00F009000BF00BF75
:10537000032080020190022002900020039003206D
:1053800004900620059001A91D48FCF74BFD1D481F
:105390002060E120400260600021A160E1602161A5
:1053A0000C2161610021A161E16121620020606244
:1053B0002046FEF7BFFD002801D0FCF78CF812480C
:1053C000124908600C204860002110488160C160CB
:1053D000802101610021416181612021C1610021A1
:1053E0000162FCF7B7FB002801D0FCF774F800BF9E
:1053F00006486067846200BF06B010BD001002401E
:1054000000080050004C00406C0002405008002092
:10541000F8B582B28BB2040C0D0C10465843002133
:1054200026465E43370C36048019794116466E4392
:10543000370C36048019794126466E438919F8BD28
:1054400030B47446641E2578641CAB4204D3635D9B
:105450005B00E31830BC18471D46F8E710B500287C
:1054600019DB1A4A03231B02D21883089B00D25867
:105470008307DC0EFF23A3409A438B071B0E840790
:10548000E40EA3401A43114B032424021B19840881
:10549000A4001A5118E00E4A03071B0F083B9B0893
:1054A0009B00D2588307DC0EFF23A3409A438B074F
:1054B0001B0E8407E40EA3401A43054B0407240F78
:1054C000083CA408A4001A5110BD000000E100E04F
:1054D0001CED00E0EFF305807047EFF3108070479C
:1054E000EFF310807047EFF31080704780F310885F
:1054F000704780F31088704700BF012000F002FA67
:10550000FBE700000024FFF7BDF800BF0021C943FE
:105510000B48006802F04AF80128F7D1601CC4B2B9
:1055200005212046FBF702F8002904D110210520AF
:105530000007FCF777FDC82CE8DB0024E6E7000055
:105540000C000020002001F045FA00BF0022D243E9
:1055500014491548006801F08DFF0128F6D1114863
:105560000078022804D004280AD0052818D10FE0BA
:105570000E4801F019F9002801DDFCF7B1F910E03F
:105580000B4801F011F9002801DD00F025F908E0D1
:10559000084801F009F9002801DDFFF739F800E0BB
:1055A00000BFD3E7280000201000002000020020E8
:1055B000040300200804002070B504460D4616467A
:1055C00033462A4621465520FEF71CFE002802D00D
:1055D0000020C04370BD0020FCE770B504460D46B6
:1055E000164633462A4621465520FEF765FF002819
:1055F00002D00020C04370BD0020FCE710B50CA114
:105600000E48FAF7B5FE0EA10C482030FAF7B0FEAE
:1056100017A10A485430FAF7ABFE1EA107482038FC
:10562000FAF7A6FE2D21090104486030816210BD01
:105630006465765F3030303100000000400D00209E
:10564000645767305158686E515735545657457AEC
:1056500056464E50656C4277516B465451575647EB
:105660004E485A6D6156463361586B3D000000004C
:105670007A386B30396A477058352E6D717474738F
:105680002E6163632E636D63636F6E656E65742E4A
:10569000636E00007A386B30396A47705835000005
:1056A00038B500200090012269461848FBF7A2FE99
:1056B000002802D00020C04338BD15490098884218
:1056C0000AD0FFF79BFF00F027F87D20C000FCF711
:1056D000E3FA0020C043EFE732240E4D224629466C
:1056E0000A48001DFBF786FE002802D00020C043B8
:1056F000E2E700200749C877002106482030C1773B
:105700004030C1743430C1740020D5E7000008086F
:10571000A4A3A2A1200D002030B5B3B01048329050
:10572000C82210496846FAF761FD012232A90E48E5
:10573000FBF77CFE002803D00020C04333B030BD0F
:1057400032246D46224629460748001DFBF76EFEAF
:10575000002802D00020C043F0E70020EEE7000060
:10576000A4A3A2A1200D00200000080810B5014646
:105770000022002900D110BD0878302806D14878D1
:10578000782802D04878582800D1891C1EE0087873
:10579000302805DB392803DC0446303CE3B210E056
:1057A000612805DB662803DC0446573CE3B208E0C9
:1057B000412805DB462803DC0446373CE3B200E021
:1057C00007E014011C432246491C00BF087800284A
:1057D000DDD100BF1046CEE710B588B0182102A871
:1057E000FAF754FE002400200190174801884088F1
:1057F000081A00D00124154800F0D6FFC4B2152CB9
:105800001FDB1BE001A9114801F004F8684600798C
:105810002B2803D00D4800F0D7FF0BE0152202A97A
:105820000A4801F026F802A800F03EF9074800F007
:10583000C4FF05E0054800F0B7FFC4B2152CE1DA5B
:1058400000BF08B010BD00000404002004030020C5
:10585000FCF79AFEFEF740FFFBF73CFF1C48FFF702
:105860005DFDFEF7ADFBFEF7C3FFFEF7A5FEFFF7FC
:1058700017FF002000F066FF00F060F8032200210F
:10588000012001F0D9FB13490860002201211020FA
:1058900001F0D2FB10490860104A0021104800F0C6
:1058A00091F810490860104A0021104800F08AF869
:1058B0000F4908600F4A00210F4800F083F80F4994
:1058C00008600F48FDF714FE00F058F800BFFEE72F
:1058D000B00600200C00002010000020B87F000857
:1058E000F954000800000020DC7F0008055500087E
:1058F0000400002000800008455500080800002032
:105900006005002070B50546FFF7E4FD002807D1CB
:10591000FFF7E9FD002806D007480068022802D1F9
:105920000524E44305E00024002D02D0284601F0C0
:1059300001FA204670BD00009400002010B5FFF76A
:10594000C9FD002807D1FFF7CEFD002806D00A4880
:105950000068022802D10524E4430AE006480068F2
:10596000002804D1012004490860002401E000243B
:10597000E443204610BD00009400002010B5FFF75E
:10598000A9FD002807D1FFF7AEFD002806D00C487E
:105990000068022802D10524E4430EE008480068AC
:1059A000012808D100BF00BF02200549086001F0AE
:1059B0007DFA002401E00024E443204610BD0000ED
:1059C00094000020F7B586B0144600200490FFF73D
:1059D00081FD002864D1FFF786FD002803D03148FF
:1059E000006802285CD00698002859D0FF260136AE
:1059F000182500200590471E002C32D02068002872
:105A000001D020680590A069002800D0A569002D6C
:105A100006D0382D04D82079C007C00F002802D046
:105A2000002009B0F0BD6069002801D060698608D7
:105A3000A06800280AD0E0685C2807D32069002805
:105A400004D06069002801D001270BE0A06800287D
:105A500008D1E068002805D12069002802D100277C
:105A600000E00027012F0CD12169A0680095019169
:105A700002903246079B0599069801F0C2FE0490F9
:105A80000EE0002F0CD104A8B2B200950190079B44
:105A90000599069801F084FE012801D000200490A9
:105AA0000498BEE794000020F0B58FB005460026AC
:105AB0000027182108A8FAF7E9FC00240020079025
:105AC000069000BF02E0285D4640641C112CFADB02
:105AD000697C08A80170A97C417000218170FFF7E2
